:020000040000FA
:04000000B5EF08F060
:1008000000414243443336392332353830313437AE
:100810002A332D416C74657261722073656E686154
:1008200000322D436F6E666967757261636F657321
:100830000053656E686120416C746572616461008B
:1008400053656E686120496E76616C69646100531E
:10085000656E686120436F7272657461004E6F76D9
:10086000612053656E68613A00312D496E69636994
:0B087000617200546573746531000074
:10087C00010EF66E080EF76E20EE03F00F0E090057
:10088C00F5CFDEFFE806FBE2000E146E000E136ED1
:10089C0068EF04F0819081828184818686EF04F078
:1008AC00818081928184818686EF04F081808182AF
:1008BC008194818686EF04F0818081828184819687
:1008CC0086EF04F013C001F014C002F00250000ACD
:1008DC00D8B473EF04F086EF04F00150000AD8B4DA
:1008EC0050EF04F0010AD8B456EF04F0030AD8B460
:1008FC005CEF04F0010AD8B462EF04F086EF04F068
:10090C0081B88BEF04F08DEF04F0ABEF04F0030E25
:10091C00026E8A0E016E560EE82EFED7012EFCD703
:10092C00022EFAD7030E016E000E026ED89013340D
:10093C00D96E1434DA6ED890D936DA360150D926FD
:10094C000250DA22DF5037EF05F081BAB0EF04F035
:10095C00B2EF04F0D4EF04F0030E026E8A0E016EB7
:10096C00560EE82EFED7012EFCD7022EFAD713C056
:10097C0001F014C002F0D89001360236D89001363E
:10098C000236010E0126000E0222030E0124D96E3E
:10099C00000E0220DA6EDF5037EF05F081BCD9EF84
:1009AC0004F0DBEF04F0FDEF04F0030E026E8A0E90
:1009BC00016E560EE82EFED7012EFCD7022EFAD76A
:1009CC0013C001F014C002F0D89001360236D89052
:1009DC0001360236020E0126000E0222030E0124FD
:1009EC00D96E000E0220DA6EDF5037EF05F081BEB3
:1009FC0002EF05F004EF05F026EF05F0030E026E92
:100A0C008A0E016E560EE82EFED7012EFCD7022E52
:100A1C00FAD713C001F014C002F0D8900136023698
:100A2C00D89001360236030E0126000E0222030E68
:100A3C000124D96E000E0220DA6EDF5037EF05F07C
:100A4C00134A142A14BE34EF05F0145009E1040EB5
:100A5C00135CD8A034EF05F036EF05F068EF04F026
:100A6C00000E12009EEC08F051EC08F0030E286EFC
:100A7C00080E276E770EE82EFED7272EFCD7282ED1
:100A8C00FAD700F03EEC04F02E6E17EC08F02E5066
:100A9C00D8B453EF05F055EF05F03CEF05F0310EEF
:100AAC002E18D8A45CEF05F05EEF05F075EF05F09D
:100ABC00CAEC08F0800ED9EC07F0730E026E080E2B
:100ACC00036E0FEC07F01A0E286E5E0E276E6E0E7C
:100ADC00E82EFED7272EFCD7282EFAD700D0320EC0
:100AEC002E18D8A47CEF05F07EEF05F0C6EF05F0CC
:100AFC00CAEC08F0800ED9EC07F0620E026E080EFC
:100B0C00036E0FEC07F0C00ED9EC07F0290E156E32
:100B1C00000E166E4CEC06F0290E076E000E086ED9
:100B2C00F8EC07F007500810D8B49FEF05F0A1EFD0
:100B3C0005F0B9EF05F0CAEC08F0800ED9EC07F01F
:100B4C004F0E026E080E036E0FEC07F0330E286E7C
:100B5C00BB0E276EE00EE82EFED7272EFCD7282ED4
:100B6C00FAD7C6EF05F0CAEC08F0800ED9EC07F006
:100B7C00400E026E080E036E0FEC07F0ACEF05F0A2
:100B8C00330E2E18D8A4CDEF05F0CFEF05F03CEFC7
:100B9C0005F0DDEC06F03CEF05F000EF00F0026E26
:100BAC000F0E83160F0E95169694969096928D9422
:100BBC008D908D92DFEC08F0300ED9EC07F0D6EC6E
:100BCC0008F0D6EC08F0300ED9EC07F0D6EC08F0B3
:100BDC00D6EC08F0320ED9EC07F034EC07F0000933
:100BEC00D8A4FBEF05F0FDEF05F0F3EF05F034ECC6
:100BFC0007F00009D8A405EF06F007EF06F0FDEFAB
:100C0C0005F00250D9EC07F034EC07F00009D8A439
:100C1C0012EF06F014EF06F00AEF06F0080ED9EC0E
:100C2C0007F034EC07F00009D8A41FEF06F021EF11
:100C3C0006F017EF06F00F0ED9EC07F034EC07F0C6
:100C4C000009D8A42CEF06F02EEF06F024EF06F0E6
:100C5C00010ED9EC07F034EC07F00009D8A439EFF9
:100C6C0006F03BEF06F031EF06F0040ED9EC07F07E
:100C7C0034EC07F00009D8A446EF06F048EF06F074
:100C8C003EEF06F0800E7AEC07F01200000E1E6E9E
:100C9C00000E1D6E90EF06F0060E186E130E176EFA
:100CAC00AE0EE82EFED7172EFCD7182EFAD73EEC38
:100CBC0004F01F6ED00E176EFF0E186E1F50196EBB
:100CCC001A6A1750192618501A221A500AE10A0EDD
:100CDC00195CD8A074EF06F077EF06F0010E78EFF0
:100CEC0006F0000E1B6E1C6A1B501C10D8B481EF52
:100CFC0006F083EF06F090EF06F01D501524D96E28
:100D0C001E501620DA6E1FC0DFFF1D4A1E2A2A0E47
:100D1C00BAEC07F01EBE9CEF06F01E5009E1040E63
:100D2C001D5CD8A09CEF06F09EEF06F052EF06F08B
:100D3C001D501524D96E1E501620DA6E000EDF6E73
:100D4C001200ADEF06F0014A022A034A042A03C03E
:100D5C00D9FF04C0DAFF01C0E1FF02C0E2FFDE50A0
:100D6C00E618D8A4BCEF06F0BEEF06F0CAEF06F00A
:100D7C0001C0D9FF02C0DAFFDF50D8A4C8EF06F0DB
:100D8C00CAEF06F0A9EF06F001C0D9FF02C0DAFFE6
:100D9C00DF50056E03C0D9FF04C0DAFFDF50066ECA
:100DAC000650055C016E026AD8A002061200CAEC5D
:100DBC0008F0800ED9EC07F05D0E026E080E036E83
:100DCC000FEC07F0C00ED9EC07F0220E156E000EDA
:100DDC00166E4CEC06F0220E036E000E046E000E26
:100DEC006DEC08F0CAEC08F0800ED9EC07F0310E6F
:100DFC00026E080E036E0FEC07F0330E216EBB0E65
:100E0C00206EE00EE82EFED7202EFCD7212EFAD72E
:100E1C00120025EF07F034EC07F00009D8A419EF05
:100E2C0007F01BEF07F011EF07F002C0F6FF03C04D
:100E3C00F7FF0800F550BAEC07F0024A032A02C08B
:100E4C00F6FF03C0F7FF0800F5500009D8A431EFF6
:100E5C0007F033EF07F011EF07F012008D848D903F
:100E6C00EFEC08F08D82EFEC08F083AE40EF07F06A
:100E7C0042EF07F04DEF07F08D92EFEC08F08D820A
:100E8C00EFEC08F08D928D94010E56EF07F08D92D9
:100E9C00EFEC08F08D82EFEC08F08D928D94000E43
:100EAC001200000E046E6DEF07F00450E7EC08F032
:100EBC00FF0AD8B464EF07F066EF07F06CEF07F0A9
:100ECC00000E036E010E026E79EF07F0042AC70EB6
:100EDC00046473EF07F075EF07F05BEF07F0000E9B
:100EEC00036E000E026E1200016E0F0E95160F0EA1
:100EFC00831601508009F00B83128D948D90EFECCA
:100F0C0008F08D82EFEC08F08D920F0E83160138ED
:100F1C00F00BF00B8312EFEC08F08D82EFEC08F085
:100F2C008D92F00E95121200026EA6B2A0EF07F091
:100F3C00A2EF07F09BEF07F002C0A9FF01C0A8FFCA
:100F4C00A69EA69CA684F29E550EA76EAA0EA76E10
:100F5C00A682A1A8B4EF07F0B6EF07F0AFEF07F049
:100F6C00F28EA198A6941200016E0F0E95160F0E1C
:100F7C0083160150F00B83128D808D94EFEC08F0EA
:100F8C008D82EFEC08F08D920F0E83160138F00B6A
:100F9C00F00B8312EFEC08F08D82EFEC08F08D92E1
:100FAC00F00E95121200016E0F0E95160F0E831691
:100FBC000150F00B83128D948D90EFEC08F08D8224
:100FCC00EFEC08F08D920F0E83160138F00BF00B3E
:100FDC008312EFEC08F08D82EFEC08F08D92F00E9E
:100FEC0095121200090E026E000E036E000E86ECB6
:100FFC0008F007C001F008C002F0090E036E000EE5
:10100C00046EA7EC06F001500210D8B410EF08F0F3
:10101C0013EF08F0010E14EF08F0000E076E086ACB
:10102C001200CAEC08F0800ED9EC07F0690E026EC3
:10103C00080E036E0FEC07F0C00ED9EC07F0210E72
:10104C00026E080E036E0FEC07F0940ED9EC07F04D
:10105C00110E026E080E036E0FEC07F01200D00E8C
:10106C00036EFF0E046E01C005F002C006F00350C3
:10107C0005260450062206500AE10A0E055CD8A08B
:10108C004AEF08F04DEF08F0010E4EEF08F0000E9D
:10109C00016E026A120020EE2FF010EE07F0040E23
:1010AC00DBCFE3FFE806FCE257EC07F0025003103D
:1010BC00D8A463EF08F065EF08F06CEF08F0070EAA
:1010CC00036E000E046E000E6DEC08F01200056E3F
:1010DC00000E066E06500324D96E000E0420DA6E44
:1010EC00DF50016E055006249AEC07F0062A030E19
:1010FC00066483EF08F085EF08F070EF08F012003B
:10110C00046E000E056E05500224D96E000E0320ED
:10111C00DA6E04500524E7EC08F0DF6E052A030EA6
:10112C0005649BEF08F09DEF08F089EF08F01200C2
:10113C009490949294949268F00E936EF00E956E37
:10114C00F19E0F0EC26E0D0EC16E950EC06E838099
:10115C00838283848386280ED5EC05F01200E80E7A
:10116C00F66E110EF76E000EF86E00EE2FF010EE0C
:10117C0005F00900F5CFEEFFE550E150FAE1000E65
:10118C00F86E000138EF05F0010ED9EC07F0210ED6
:10119C00026E760EE82EFED7022EFCD700D012007F
:1011AC00210E016E760EE82EFED7012EFCD700D054
:1011BC001200620E016E660EE82EFED7012EFCD7D1
:1011CC001200016E01C0A9FFA69EA69CA680A85085
:1011DC001200210EE82EFED700F01200313233340B
:0111EC000002
:020000040020DA
:08000000FFFFFFFFFFFFFFFF00
:020000040030CA
:0E000000000C191EFF8080FF0FC00FE00F40A4
:00000001FF
