:0400000007EF00F016
:100008005F825AED26F07FEF31F0000E0101036F99
:10001800000E026F0001C451C511D8B416EF00F0EC
:1000280018EF00F025EF00F0C4C0D9FFC5C0DAFF13
:10003800C2C0DEFFC3C0DDFF25EF00F00001C24BE8
:10004800C32BC2C0D9FFC3C0DAFF200EDE18D8B454
:1000580030EF00F033EF00F0010E34EF00F0000E47
:100068000101086F096B08510911D8A43EEF00F08F
:1000780040EF00F022EF00F0C2C0D9FFC3C0DAFFA2
:10008800DF500001C66FC6510101086F096B08C136
:10009800C7F0F70E0001C727040EC76556EF00F03A
:1000A80058EF00F022EF00F00101056B2D0E081942
:1000B8000911D8A462EF00F064EF00F06BEF00F0D4
:1000C800010E056F0001C24BC32B77EF00F02B0E1A
:1000D80008190911D8A473EF00F075EF00F077EF55
:1000E80000F066EF00F001010E6B7DEF00F00101FA
:1000F8000E2B0E510001C225D96E0101000E000120
:10010800C321DA6EDF50D8B48CEF00F08EEF00F028
:10011800CAEF00F001010E510001C225D96E01019C
:10012800000E0001C321DA6EDF50C66FBE0E01015A
:100138000E25F66EF76A7F0EF7220800F5500001CB
:10014800C619D8B4AAEF00F0ACEF00F07BEF00F0CE
:1001580001010E510001C225D96E0101000E0001F6
:10016800C321DA6EDF50C66FB50E01010E25F66E9B
:10017800F76A7F0EF7220800F5500001C619D8B4B7
:10018800C8EF00F0CAEF00F07BEF00F0020E0101AB
:100198000E65D1EF00F0D3EF00F002EF01F0000E92
:1001A8000A6F000E0B6F800E0C6F7F0E0D6F000133
:1001B800C451C511D8B4E3EF00F0E5EF00F003EF48
:1001C80009F0080E01010E19D8B4EDEF00F0EFEFB9
:1001D80000F0F1EF00F0030E0E6F0E510001C22582
:1001E800C66F000EC321C76FC4C0D9FFC5C0DAFFF0
:1001F800C6C0DEFFC7C0DDFF03EF09F00E6B07EFD7
:1002080001F001010E2B0E510001C225D96E01012A
:10021800000E0001C321DA6EDF50D8B416EF01F0EA
:1002280018EF01F054EF01F001010E510001C22551
:10023800D96E0101000E0001C321DA6EDF50C66FCE
:10024800FB0E01010E25F66EF76A7F0EF7220800F5
:10025800F5500001C619D8B434EF01F036EF01F0BB
:1002680005EF01F001010E510001C225D96E01010F
:10027800000E0001C321DA6EDF50C66FF30E0101D4
:100288000E25F66EF76A7F0EF7220800F55000017A
:10029800C619D8B452EF01F054EF01F005EF01F0A0
:1002A800030E01010E19D8A45CEF01F05EEF01F016
:1002B800DEEF01F0730E0001766F7F0E776F65EC4D
:1002C80036F076C00AF177C00BF178C00CF179C02E
:1002D8000DF10001C451C511D8B475EF01F077EFE5
:1002E80001F003EF09F001010E510001C227000ED1
:1002F800C323C2C0D9FFC3C0DAFF280EDE18D8A4B2
:1003080088EF01F08AEF01F0D4EF01F001010E6BE4
:1003180090EF01F001010E2B0E510001C225D96E9C
:100328000101000E0001C321DA6EDF50D8B49FEF3F
:1003380001F0A1EF01F0B4EF01F001010E5100014D
:10034800C225D96E0101000E0001C321DA6E290E03
:10035800DE18D8A4B2EF01F0B4EF01F08EEF01F08F
:1003680001010E510001C225D96E0101000E0001E4
:10037800C321DA6E290EDE18D8A4C5EF01F0C7EF45
:1003880001F0D4EF01F001010E510001C66FC76BF7
:10039800010EC627000EC723C651C227C751C32363
:1003A800C4C0D9FFC5C0DAFFC2C0DEFFC3C0DDFFCD
:1003B80003EF09F0000E096F000E086F000E0A6FB8
:1003C800000E0B6F000E0C6F000E0D6F006B016BB3
:1003D800000E076F000E066F0E6BF5EF01F00101BE
:1003E8000E2B0E510001C225D96E0101000E00012D
:1003F800C321DA6E300EDE18D8B405EF02F007EF2D
:1004080002F0F3EF01F001010E51D8B40EEF02F043
:1004180010EF02F04FEF06F00E510001C225D96E21
:100428000101000E0001C321DA6E780EDE18D8B47F
:1004380020EF02F022EF02F035EF02F001010E5139
:100448000001C225D96E0101000E0001C321DA6E38
:10045800580EDE18D8A433EF02F035EF02F04FEF54
:1004680006F001010E510001C225C66F000EC3211E
:10047800C76F010EC625D96E000EC721DA6EDF5090
:10048800C86FC851766F776B3DEC32F0000176513A
:100498007711D8A452EF02F054EF02F06DEF02F09A
:1004A80001010E510001C225C66F000EC321C76F9E
:1004B800010EC625D96E000EC721DA6E2E0EDE1883
:1004C800D8B469EF02F06BEF02F06DEF02F057EF6E
:1004D80005F00EC100F101010E2B0E510001C225DD
:1004E800D96E0101000E0001C321DA6E300EDE184C
:1004F800D8B481EF02F083EF02F06FEF02F0010150
:100508000E510001C225D96E0101000E0001C32160
:10051800DA6E700EDE18D8B494EF02F096EF02F09F
:1005280051EF04F001010E510001C225D96E0101FD
:10053800000E0001C321DA6E500EDE18D8A4A7EF12
:1005480002F0A9EF02F0ABEF02F051EF04F0010165
:100558000E510001C225D96E0101000E0001C32110
:10056800DA6E2E0EDE18D8A4BCEF02F0BEEF02F051
:10057800C5EF02F0010105890EC101F10E2B51EF03
:1005880004F001010E510001C225D96E0101000ECF
:100598000001C321DA6EDF50C66FC651766F776BE4
:1005A8003DEC32F0000176517711D8B4DEEF02F05D
:1005B800E0EF02F057EF05F00101046B0E51000166
:1005C800C225D96E0101000E0001C321DA6EDF5089
:1005D800C66FC651766F776B25EC36F00001765101
:1005E8007711D8B4FAEF02F0FCEF02F00CEF03F049
:1005F80001010E510001C225D96E0101000E000152
:10060800C321DA6EDF50D00F0101046F22EF03F02F
:1006180001010E510001C225D96E0101000E000131
:10062800C321DA6EDF50C66FC651766F776BDEEC8A
:1006380035F000017651C90F0101046F09BF30EF91
:1006480003F0095107E1080E085DD8B02EEF03F05A
:1006580030EF03F057EF03F0085107080001C66FA9
:10066800D890C637D890C63704C1C7F0C86BC96BD5
:10067800CA6BC62B45EF03F0D890C737C837C937C0
:10068800CA37C62F40EF03F0C75101010A13000112
:10069800C85101010B130001C95101010C130001DC
:1006A800CA5101010D13084B092B040E0627000E31
:1006B80007230E2B83EF02F00E510001C225D96EDD
:1006C8000101000E0001C321DA6E300EDE18D8A435
:1006D80070EF03F072EF03F082EF03F001010851AD
:1006E8000911D8A47AEF03F07CEF03F082EF03F04E
:1006F800FC0E0627FF0E072350EF04F001010E51F0
:100708000001C225D96E0101000E0001C321DA6E75
:10071800DF50C66FC651766F776B3DEC32F0000143
:1007280076517711D8B49BEF03F09DEF03F018EFE3
:1007380004F00101046B0E510001C225D96E0101BC
:10074800000E0001C321DA6EDF50C66FC651766F06
:10075800776B25EC36F0000176517711D8B4B7EFF6
:1007680003F0B9EF03F0C9EF03F001010E510001E6
:10077800C225D96E0101000E0001C321DA6EDF50D7
:10078800D00F0101046FDFEF03F001010E510001EA
:10079800C225D96E0101000E0001C321DA6EDF50B7
:1007A800C66FC651766F776BDEEC35F00001765177
:1007B800C90F0101046F09BFEDEF03F0095107E10B
:1007C800080E085DD8B0EBEF03F0EDEF03F014EF7F
:1007D80004F0085107080001C66FD890C637D890B2
:1007E800C63704C1C7F0C86BC96BCA6BC62B02EF0A
:1007F80004F0D890C737C837C937CA37C62FFDEFB6
:1008080003F0C75101010A130001C85101010B137C
:100818000001C95101010C130001CA5101010D1356
:10082800084B092B50EF04F001010E510001C66F6F
:10083800C76B010101510001C86FC96B010EC827C0
:10084800000EC923C651C81907E1C751C919D8A450
:1008580030EF04F032EF04F059EF04F001010151D8
:100868000001C66FC76B010100510001C86FC96B59
:10087800010EC827000EC923C651C81907E1C75180
:10088800C919D8A44AEF04F04CEF04F059EF04F06A
:1008980000C10EF157EF05F00E2B010105B957EF16
:1008A80004F059EF04F060EF03F001010E5100016C
:1008B800C227000EC32301010E6BC2C0D9FFC3C0FB
:1008C800DAFF700EDE18D8B46CEF04F06EEF04F0A7
:1008D8007DEF04F0C2C0D9FFC3C0DAFF500EDE18A6
:1008E800D8B479EF04F07BEF04F07DEF04F057EF14
:1008F80005F00E2B000120EE01F0C251D926C3519C
:10090800DA222B0EDE18D8A48CEF04F08EEF04F058
:1009180092EF04F001010E2BA4EF04F020EE01F099
:10092800C251D926C351DA222D0EDE18D8A49FEF62
:1009380004F0A1EF04F0A4EF04F0010105870E2BE9
:1009480001010E510001C225D96E0101000E0001FE
:10095800C321DA6EDF50C66FC651766F776B25EC10
:1009680036F0000176517711D8A4BDEF04F0BFEF3F
:1009780004F0C3EF04F001010E6B57EF05F001011D
:100988000E510001C227000EC32301010E6BCFEFE9
:1009980004F001010E2B0E510001C225D96E010190
:1009A800000E0001C321DA6E300EDE18D8B4DFEF76
:1009B80004F0E1EF04F0CDEF04F0000E0101096F3F
:1009C800000E086F1AEF05F001010E51D8B4EFEFD1
:1009D80004F0F1EF04F000EF05F008C176F009C16A
:1009E80077F0000E0001796F0A0E786F51EC36F03F
:1009F80076C008F177C009F101010E510001C22546
:100A0800D96E0101000E0001C321DA6EDF50C66FF6
:100A1800D00EC625C76FC86BFF0EC823C75101018A
:100A280008270001C851010109230E2B0E510001AE
:100A3800C225D96E0101000E0001C321DA6EDF5014
:100A4800C66FC651766F776B25EC36F0000176518C
:100A58007711D8A432EF05F034EF05F0E8EF04F091
:100A680001010E51D8A43BEF05F03DEF05F048EF2A
:100A780005F0000E0001C26F000EC36F000EC46FB8
:100A8800000EC56F3AEF09F005A74DEF05F04FEFDF
:100A980005F053EF05F0086D091FD8B0092B085170
:100AA8000627095107230001C451C511D8B45FEFC7
:100AB80005F061EF05F071EF05F001010E5100013D
:100AC800C225C66F000EC321C76FC4C0D9FFC5C0F9
:100AD800DAFFC6C0DEFFC7C0DDFF01010A510B11F6
:100AE8000C110D11D8A47BEF05F07DEF05F088EF10
:100AF80005F0000E0001C26F000EC36F000EC46F38
:100B0800000EC56F3AEF09F0FF0E0A150001C66F17
:100B1800000E01010B150001C76F000E01010C1535
:100B28000001C86F000E01010D150001C96FC95100
:100B3800C811C71109E1810EC65DD8A0A6EF05F05E
:100B4800A8EF05F0BBEF05F0000E01010A27010E22
:100B58000B23000E0C23000E0D23BBEF05F0D890DD
:100B68000A370B370C370D370607D8A007070101DE
:100B78000DAFC1EF05F0C3EF05F0B3EF05F007AF18
:100B8800CFEF05F0830E065DFF0E0759D8B0CFEF03
:100B980005F0D1EF05F0DDEF05F0FF0E076F810ED0
:100BA800066F000E0A6F000E0B6F000E0C6F000E22
:100BB8000D6F810E061908E10729D8B4E6EF05F094
:100BC800E8EF05F0F0EF05F0D8900A370B370C374F
:100BD8000D370607D8A0070707BFFCEF05F0075138
:100BE80009E1800E065DD8A0FCEF05F0FEEF05F0E8
:100BF80010EF06F0000E0A6F000E0B6F000E0C6F60
:100C0800000E0D6F000E076F800E066F000E036F4B
:100C1800220E026F03EF09F0090E0001C66FD8908B
:100C280001010D330C330B330A330001C62F13EFC8
:100C380006F0FF0E01010A17FF0E0B177F0E0C17A7
:100C4800000E0D177F0E06250001C66F000E01016C
:100C580007210001C76FFF0EC615C86FC96BCA6BA5
:100C6800CB6B170ED890C837C937CA37CB37E82EA1
:100C780036EF06F0C85101010A130001C9510101FC
:100C88000B130001CA5101010C130001CB510101E2
:100C98000D1303EF09F0010105B955EF06F057EF01
:100CA80006F06AEF06F0C2C0D9FFC3C0DAFF2E0E05
:100CB800DE18D8A462EF06F064EF06F06AEF06F0DB
:100CC80005890001C24BC32B4FEF06F0C2C0D9FF04
:100CD800C3C0DAFFDF500001C66FC651766F776B6D
:100CE80025EC36F0000176517711D8A47EEF06F096
:100CF80080EF06F082EF06F0D5EF06F001010583DC
:100D0800090E08190911D8B48CEF06F08EEF06F019
:100D1800C7EF06F005A993EF06F095EF06F098EFF8
:100D280006F00607D8A00707084B092B0AC176F07A
:100D38000BC177F00CC178F00DC179F00A0E0001F3
:100D48007A6F000E7B6F000E7C6F000E7D6F15ECC6
:100D580031F076C00AF177C00BF178C00CF179C098
:100D68000DF1C2C0D9FFC3C0DAFFDF500001C66F62
:100D7800D00EC627C65101010A27000E0B230C23EB
:100D88000D23D0EF06F005B9CCEF06F0CEEF06F054
:100D9800D0EF06F0064B072B0001C24BC32B4FEFD9
:100DA80006F0000E0101096F000E086FC2C0D9FFDE
:100DB800C3C0DAFF650EDE18D8B4E5EF06F0E7EF3A
:100DC80006F0F4EF06F0C2C0D9FFC3C0DAFF450E43
:100DD800DE18D8A4F2EF06F0F4EF06F08AEF07F079
:100DE8000001C24BC32BC2C0D9FFC3C0DAFF2D0E0E
:100DF800DE18D8A402EF07F004EF07F00BEF07F0B6
:100E0800010105870001C24BC32B1AEF07F0C2C0CE
:100E1800D9FFC3C0DAFF2B0EDE18D8A416EF07F0EF
:100E280018EF07F01AEF07F0C24BC32BC2C0D9FF67
:100E3800C3C0DAFF300EDE18D8B425EF07F027EF6D
:100E480007F018EF07F00101046B4CEF07F0C2C080
:100E5800D9FFC3C0DAFFDF50C66FD00EC6270A0E0F
:100E680001010803F3CFC7F0F4CFC8F00903F3502A
:100E78000001C827C651C7250101086F0001000EEF
:100E8800C8210101096F0001C24BC32B0101042BCA
:100E9800C2C0D9FFC3C0DAFFDF500001C66FC65118
:100EA800766F776B25EC36F0000176517711D8A470
:100EB80060EF07F062EF07F02BEF07F00101045134
:100EC800D8A469EF07F06BEF07F07EEF07F0000199
:100ED8002FEEFFF0C251D926C351DA22300EDE18A8
:100EE800D8B479EF07F07BEF07F07EEF07F0C20781
:100EF800D8A0C307010105A784EF07F086EF07F024
:100F08008AEF07F0086D091FD8B0092B085106278A
:100F1800095107230001C451C511D8B496EF07F051
:100F280098EF07F0A8EF07F0010105A39EEF07F07F
:100F3800A0EF07F0A8EF07F0C4C0D9FFC5C0DAFFDB
:100F4800C2C0DEFFC3C0DDFF0AC176F00BC177F077
:100F58000CC178F00DC179F0000E4FEC22F076C08C
:100F68000AF177C00BF178C00CF179C00DF10AC114
:100F780076F00BC177F00CC178F00DC179F0000E56
:100F880000017A6F000E7B6F000E7C6F000E7D6F84
:100F980046EC2EF00001D8A0D4EF07F0D6EF07F00A
:100FA800E0EF07F0000EC26F000EC36F000EC46FB3
:100FB800000EC56F3AEF09F0010107BFE8EF07F02F
:100FC800E6EF07F07FEF08F0066D071FD8B0072B94
:100FD8000EEF08F00AC184F00BC185F00CC186F051
:100FE8000DC187F0F90E0001886F020E896F150E8A
:100FF8008A6F500E8B6F55EC17F084C00AF185C0CC
:101008000BF186C00CF187C00DF10101F60E062721
:10101800FF0E072307BF1CEF08F0075107E10A0E70
:10102800065DD8B01AEF08F01CEF08F0EEEF07F0F5
:101038003DEF08F00AC184F00BC185F00CC186F0C1
:101048000DC187F0000E0001886F000E896F200E19
:101058008A6F410E8B6F55EC17F084C00AF185C07A
:101068000BF186C00CF187C00DF101010607D8A06D
:10107800070706510711D8A444EF08F046EF08F017
:101088001EEF08F00AC1B6F00BC1B7F00CC1B8F0FA
:101098000DC1B9F0000E0001BA6F000EBB6F800ED3
:1010A800BC6F000EBD6F6DEC29F00001D8B05FEF8A
:1010B80008F061EF08F003EF09F0010105A167EFFF
:1010C80008F069EF08F074EF08F0000E0001C26F35
:1010D800000EC36F800EC46F800EC56F3AEF09F023
:1010E800000E0001C26F000EC36F800EC46F000EA9
:1010F800C56F3AEF09F007BF8AEF08F0075108E11A
:101108000605D8A08AEF08F08CEF08F003EF09F085
:10111800AEEF08F00AC19DF00BC19EF00CC19FF024
:101128000DC1A0F0F90E0001A16F020EA26F150EFD
:10113800A36F500EA46F2EEC13F09DC00AF19EC051
:101148000BF19FC00CF1A0C00DF10101F60E0627AE
:10115800FF0E0723075107E10A0E065DD8B0B7EF67
:1011680008F0B9EF08F08EEF08F0DAEF08F00AC1DE
:101178009DF00BC19EF00CC19FF00DC1A0F0000EB8
:101188000001A16F000EA26F200EA36F410EA46F85
:101198002EEC13F09DC00AF19EC00BF19FC00CF11C
:1011A800A0C00DF101010607D8A0070706510711D5
:1011B800D8A4E1EF08F0E3EF08F0BBEF08F0FF0E6A
:1011C8000001B66FFF0EB76F7F0EB86F7F0EB96F55
:1011D8000AC1BAF00BC1BBF00CC1BCF00DC1BDF027
:1011E8006DEC29F00001D8B0FCEF08F0FEEF08F034
:1011F80003EF09F0000E0101036F220E026F0101D7
:1012080002510311D8B40BEF09F00DEF09F019EFF3
:1012180009F002C199F103C19AF1000E0A6F000E9C
:101228000B6F800E0C6F7F0E0D6F05A11EEF09F07E
:1012380020EF09F032EF09F00AC176F00BC177F020
:101248000CC178F00DC179F005EC35F076C00AF1E3
:1012580077C00BF178C00CF179C00DF10AC1C2F06A
:101268000BC1C3F00CC1C4F00DC1C5F012000101DF
:10127800286B02C129F103C12AF104C12BF105C170
:101288002CF12CBF4CEF09F04AEF09F060EF09F0A0
:10129800010E286F29C176F02AC177F02BC178F0AA
:1012A8002CC179F005EC35F076C029F177C02AF128
:1012B80078C02BF179C02CF1000E01012E6F000EC1
:1012C8002D6F9BC118F19CC119F12851D8B46FEF4B
:1012D80009F071EF09F085EF09F02851D8A477EFEC
:1012E80009F079EF09F07FEF09F0000E0E6F2B0E71
:1012F8000D6F83EF09F0000E0E6F2D0E0D6F0DC1EF
:1013080028F129C176F02AC177F02BC178F02CC1D9
:1013180079F0F5EC2AF0000176057711D8A497EF5B
:1013280009F099EF09F0D0EF09F001012851D8B47C
:10133800A0EF09F0A2EF09F0ABEF09F028C1A3F183
:101348001807D8A01907000E2E6F010E2D6FA30ED7
:101358002D250001766F010E01012E210001776F06
:10136800F70E786F7F0E796FE8EC34F00101FD0E0F
:101378001827FF0E192300C186F001C187F0A30EBC
:101388000001886F010E896F18C18AF019C18BF0AE
:10139800A3EC30F076EF0EF029C176F02AC177F091
:1013A8002BC178F02CC179F0F5EC2AF000017651C8
:1013B8007711D8A4E2EF09F0E4EF09F007EF0AF09B
:1013C80001012851D8B4EBEF09F0EDEF09F0F6EF81
:1013D80009F028C1A3F11807D8A01907000E2E6F2D
:1013E800010E2D6FA30E2D250001766F010E010150
:1013F8002E210001776FFB0E786F7F0E796FE8EC76
:1014080034F0BAEF09F0000E01012F6F000E306FB3
:10141800800E316F3F0E326F000E176F000E166F81
:1014280029C176F02AC177F02BC178F02CC179F068
:10143800000E00017A6F000E7B6F000E7C6F000EAD
:101448007D6F46EC2EF00001D8B02DEF0AF02FEF9B
:101458000AF029EF0BF03CEF0AF01AC12FF11BC17B
:1014680030F11CC131F11DC132F10101164B172BAE
:101478002FC19DF030C19EF031C19FF032C1A0F064
:10148800000E0001A16F000EA26F200EA36F410E87
:10149800A46F2EEC13F09DC01AF19EC01BF19FC0E3
:1014A8001CF1A0C01DF101011A51295D0001766FE0
:1014B80001011B512A590001776F01011C512B5959
:1014C8000001786F01011D512C590001796F11EC51
:1014D80032F0000179BF7CEF0AF079517811771169
:1014E80009E1020E765DD8A07CEF0AF07EEF0AF0E3
:1014F80031EF0AF01AC1B6F01BC1B7F01CC1B8F041
:101508001DC1B9F029C1BAF02AC1BBF02BC1BCF08A
:101518002CC1BDF06DEC29F00001D8A096EF0AF0BF
:1015280098EF0AF031EF0AF001012F51295D00010F
:10153800766F010130512A590001776F010131514D
:101548002B590001786F010132512C590001796F34
:1015580011EC32F0000179BFBFEF0AF07951781130
:10156800771107E1020E765DD8B0BDEF0AF0BFEF44
:101578000AF00FEF0BF02FC129F130C12AF131C168
:101588002BF132C12CF129EF0BF02FC184F030C1BF
:1015980085F031C186F032C187F0000E886F000EE9
:1015A800896F200E8A6F410E8B6F55EC17F084C03F
:1015B8002FF185C030F186C031F187C032F10101C9
:1015C8001607D8A017072F51295D0001766F010172
:1015D80030512A590001776F010131512B5900010F
:1015E800786F010132512C590001796F11EC32F0FA
:1015F800000179BF0DEF0BF079517811771107E1F0
:10160800020E765DD8B00BEF0BF00DEF0BF00FEF7D
:101618000BF0BFEF0AF029C1B6F02AC1B7F02BC111
:10162800B8F02CC1B9F02FC1BAF030C1BBF031C14C
:10163800BCF032C1BDF06DEC29F00001D8A027EF55
:101648000BF029EF0BF0C9EF0AF006C110F110C139
:1016580011F101019EBF33EF0BF035EF0BF03BEFBB
:101668000BF09DC109F19EC10AF13FEF0BF0000E8E
:101678000A6F060E096F09C114F10AC115F1144B5E
:10168800152B660E1119D8A44CEF0BF04EEF0BF08A
:101698006EEF0BF017BF55EF0BF053EF0BF061EF48
:1016A8000BF0000E2F6F000E306F800E316F3F0E63
:1016B800326F000E176F000E166F670E1019D8B430
:1016C80068EF0BF06AEF0BF06EEF0BF01651142772
:1016D80017511523000E1F6F000E1E6F29C120F130
:1016E8002AC121F12BC122F12CC123F12FC11AF1FA
:1016F80030C11BF131C11CF132C11DF100EF0CF0FA
:1017080020C184F021C185F022C186F023C187F071
:101718002FC188F030C189F031C18AF032C18BF015
:1017280055EC17F084C09DF085C09EF086C09FF0F0
:1017380087C0A0F09CEC1EF09DC024F19EC025F14E
:101748009FC026F1A0C027F124C1C6F025C1C7F06B
:1017580026C1C8F027C1C9F0E9EC28F0C6C012F1CB
:10176800C7C013F120C1C6F021C1C7F022C1C8F01B
:1017780023C1C9F024C1A1F025C1A2F026C1A3F05C
:1017880027C1A4F02FC19DF030C19EF031C19FF058
:1017980032C1A0F02EEC13F09DC0CAF09EC0CBF071
:1017A8009FC0CCF0A0C0CDF051EC33F0C6C020F102
:1017B800C7C021F1C8C022F1C9C023F12FC184F0EC
:1017C80030C185F031C186F032C187F0000E0001CA
:1017D800886F000E896F200E8A6F410E8B6F55EC53
:1017E80017F084C02FF185C030F186C031F187C071
:1017F80032F101011E4B1F2B14511E5D1F51800A2F
:101808000001D06F01011551800A0001D059D8A0FC
:1018180010EF0CF012EF0CF084EF0BF02FC19DF0DD
:1018280030C19EF031C19FF032C1A0F0000EA16F0F
:10183800000EA26FA00EA36F400EA46F2EEC13F043
:101848009DC024F19EC025F19FC026F1A0C027F1BC
:1018580020C1B6F021C1B7F022C1B8F023C1B9F058
:1018680024C1BAF025C1BBF026C1BCF027C1BDF028
:101878006DEC29F00001D8B044EF0CF046EF0CF005
:1018880051EF0CF0000E0101246F000E256F000EC1
:10189800266F000E276F7BEF0CF020C176F021C178
:1018A80077F022C178F023C179F024C17AF025C1FC
:1018B8007BF026C17CF027C17DF046EC2EF00001BC
:1018C800D8A069EF0CF06BEF0CF07BEF0CF0010186
:1018D80012B171EF0CF073EF0CF07BEF0CF0000E0F
:1018E800246F000E256F000E266F000E276F29C18A
:1018F800B6F02AC1B7F02BC1B8F02CC1B9F024C199
:10190800BAF025C1BBF026C1BCF027C1BDF077EC09
:101918000EF0B6C020F1B7C021F1B8C022F1B9C0AD
:1019280023F120C1B6F021C1B7F022C1B8F023C11C
:10193800B9F0000E0001A16F000EA26F200EA36F78
:10194800410EA46F1AC19DF01BC19EF01CC19FF0EF
:101958001DC1A0F02EEC13F09DC0BAF09EC0BBF0E4
:101968009FC0BCF0A0C0BDF06DEC29F00001D8A06C
:10197800C0EF0CF0C2EF0CF0ECEF0CF00101164BCD
:10198800172B1AC19DF01BC19EF01CC19FF01DC1F1
:10199800A0F0000E0001A16F000EA26F200EA36F31
:1019A800410EA46F2EEC13F09DC01AF19EC01BF1DE
:1019B8009FC01CF1A0C01DF1660E01011119D8A429
:1019C800E8EF0CF0EAEF0CF0ECEF0CF0144B152BF1
:1019D8001AC12FF11BC130F11CC131F11DC132F107
:1019E80016C107F117C108F101010F6B000E0C6F4A
:1019F800000E0B6F000E1F6F000E1E6FEBEF0DF049
:101A080020C184F021C185F022C186F023C187F06E
:101A18002FC188F030C189F031C18AF032C18BF012
:101A280055EC17F084C09DF085C09EF086C09FF0ED
:101A380087C0A0F09CEC1EF09DC024F19EC025F14B
:101A48009FC026F1A0C027F124C1C6F025C1C7F068
:101A580026C1C8F027C1C9F0E9EC28F00001C7BFCA
:101A680041EF0DF0C75107E10A0EC65DD8B03FEF50
:101A78000DF041EF0DF051EF0DF024C1C6F025C176
:101A8800C7F026C1C8F027C1C9F0E9EC28F0C6C0E4
:101A980012F1C7C013F156EF0DF0000E0101136FDC
:101AA800090E126F01010F51D8A45DEF0DF05FEF21
:101AB8000DF087EF0DF008BF66EF0DF064EF0DF045
:101AC80087EF0DF0A30E2D25D96E010E2E21DA6EAB
:101AD8002E0EDF6E2D4B2E2B1807D8A01907010EDE
:101AE8000F6F87EF0DF0A30E2D25D96E010E2E2155
:101AF800DA6E300EDF6E2D4B2E2B1807D8A0190783
:101B08000B07D8A00C070B510C11D8A48EEF0DF0C1
:101B180090EF0DF077EF0DF0A30E2D25D96E010E85
:101B28002E21DA6E1251300FDF6E2D4B2E2B180737
:101B3800D8A0190720C1C6F021C1C7F022C1C8F03A
:101B480023C1C9F024C1A1F025C1A2F026C1A3F088
:101B580027C1A4F02FC19DF030C19EF031C19FF084
:101B680032C1A0F02EEC13F09DC0CAF09EC0CBF09D
:101B78009FC0CCF0A0C0CDF051EC33F0C6C020F12E
:101B8800C7C021F1C8C022F1C9C023F12FC184F018
:101B980030C185F031C186F032C187F0000E0001F6
:101BA800886F000E896F200E8A6F410E8B6F55EC7F
:101BB80017F084C02FF185C030F186C031F187C09D
:101BC80032F101010707D8A008071E4B1F2B14513B
:101BD8001E5D1F51800A0001D06F01011551800A56
:101BE8000001D059D8B0FBEF0DF0FDEF0DF00CEF70
:101BF8000EF001012EBF0AEF0EF02E5109E14B0E37
:101C08002D5DD8A00AEF0EF00CEF0EF004EF0DF0EA
:101C1800000E01011F6F4F0E1E6FA30E1E25D96EF9
:101C2800010E1F21DA6EDF6AA30E0001D06F010ECC
:101C3800D16F01012D510001D05F01012E5100012A
:101C4800D15B01011E510001D025766F01011F51A2
:101C58000001D121776FA30E786F010E796F2DC126
:101C68007AF02EC17BF091EC32F001012D511E5D0E
:101C78002D6F2E511F592E6F2851D8A446EF0EF004
:101C880049EF0EF0010E4AEF0EF0000E1E6F1F6BAB
:101C98002851D8B452EF0EF054EF0EF05FEF0EF06B
:101CA8002D07D8A02E07A30E2D25D96E010E2E21A3
:101CB800DA6E28C1DFFF1E51185F1F51195B00C182
:101CC80086F001C187F0A30E2D250001886F010E53
:101CD80001012E210001896F18C18AF019C18BF00A
:101CE800A3EC30F012000001B951800BC26FB9515A
:101CF800B925C46FB8AF83EF0EF085EF0EF086EF0D
:101D08000EF0C481C451D8B48CEF0EF08EEF0EF0F3
:101D1800A2EF0EF0C429D8A494EF0EF096EF0EF0BF
:101D28009EEF0EF0000EB66F000EB76F000EB86F84
:101D3800000EB96FB88FB96BAAEF0EF0000EB66F30
:101D4800000EB76F000EB86F000EB96FBD51800B53
:101D5800C36FC251C319D8B4B4EF0EF0B6EF0EF08A
:101D6800B7EF0EF0C28DBD51BD25C36FBCAFBFEF3D
:101D78000EF0C1EF0EF0C2EF0EF0C381C351D8B41C
:101D8800C8EF0EF0CAEF0EF0DEEF0EF0C329D8A4AC
:101D9800D0EF0EF0D2EF0EF0DAEF0EF0000EBA6FC1
:101DA800000EBB6F000EBC6F000EBD6FBC8FBD6B0D
:101DB800E6EF0EF0000EBA6F000EBB6F000EBC6FA0
:101DC800000EBD6FC451C35DD8B0EDEF0EF0EFEF5C
:101DD8000EF016EF0FF0C2ADF4EF0EF0F6EF0EF0C6
:101DE800F8EF0EF0800EC21BC4C0C5F0C3C0C4F02B
:101DF800C5C0C3F0B6C0C5F0BAC0B6F0C5C0BAF029
:101E0800B7C0C5F0BBC0B7F0C5C0BBF0B8C0C5F01F
:101E1800BCC0B8F0C5C0BCF0B9C0C5F0BDC0B9F011
:101E2800C5C0BDF0C56BC451C3C0BEF0BF6BBE5FBB
:101E3800000EBF5BBFBF2AEF0FF0BF5109E11A0EBA
:101E4800BE5DD8A02AEF0FF02CEF0FF063EF0FF074
:101E5800B651B711B811B911D8A435EF0FF038EF52
:101E68000FF0010E39EF0FF0000EC56F000EB66FC0
:101E7800000EB76F000EB86F000EB96FC3C0C4F084
:101E88006CEF0FF0C5A14BEF0FF04DEF0FF053EFD4
:101E98000FF0D890C5310109C56F55EF0FF0D890F4
:101EA800C533B6A15AEF0FF05CEF0FF05DEF0FF0FE
:101EB800C58FB935B933B833B733B633C42BC3512B
:101EC800C45DD8A06AEF0FF06CEF0FF046EF0FF08B
:101ED800C2BD71EF0FF073EF0FF0B3EF0FF0C45105
:101EE800D8A479EF0FF07BEF0FF085EF0FF0000E1D
:101EF800B66F000EB76F000EB86F000EB96FD2EF55
:101F080010F0BA51B627BB51B723BC51B823BD5105
:101F1800B923B9A192EF0FF094EF0FF040EF10F052
:101F2800C5A199EF0FF09BEF0FF0A1EF0FF0D8903C
:101F3800C5310109C56FA3EF0FF0D890C533B6A11D
:101F4800A8EF0FF0AAEF0FF0ABEF0FF0C58FB93580
:101F5800B933B833B733B633C42B40EF10F0BA51A6
:101F6800B65DBB51B759BC51B859B951800ABE6F5B
:101F7800BD51800ABE59D8B0C4EF0FF0C6EF0FF0BC
:101F8800F1EF0FF0B651BA5DBE6FB751BB59BF6FD5
:101F9800B851BC59C06FB951BD59C16FFF0EBE25AC
:101FA800B66FFF0EBF21B76FFF0EC021B86FFF0ECF
:101FB800C121B96F800EC21BC56DC551D8A4E7EF0A
:101FC8000FF0E9EF0FF0F9EF0FF0010EB627000E52
:101FD800B723B823B923F9EF0FF0BA51B65FBB5155
:101FE800B75BBC51B85BBD51B95BB651B711B811FD
:101FF800B911D8A402EF10F004EF10F039EF10F087
:10200800C551D8A40AEF10F00CEF10F039EF10F01A
:10201800000EB66F000EB76F000EB86F000EB96FE6
:10202800D2EF10F0D890B637B737B837B937C5AF51
:1020380020EF10F022EF10F023EF10F0B681C5A1C9
:1020480028EF10F02AEF10F02EEF10F0D880C537E7
:1020580030EF10F0D890C537C451D8B436EF10F02F
:1020680038EF10F039EF10F0C407B8AF3EEF10F0BA
:1020780040EF10F016EF10F0C36BC5AF46EF10F04D
:1020880048EF10F060EF10F0C5C0BEF07F0EBE172D
:10209800D8B451EF10F053EF10F057EF10F0010ED5
:1020A800C36F60EF10F0B6A15CEF10F05EEF10F0B8
:1020B80060EF10F053EF10F0C351D8B466EF10F092
:1020C80068EF10F093EF10F0010EB627000EB7235B
:1020D800B823B923B9A173EF10F075EF10F093EF9F
:1020E80010F0B6C0BEF0B7C0BFF0B8C0C0F0B9C0FD
:1020F800C1F0C135C133C033BF33BE33BEC0B6F043
:10210800BFC0B7F0C0C0B8F0C1C0B9F0C429D8B4D6
:1021180090EF10F092EF10F093EF10F0C42BC42959
:10212800D8B499EF10F09BEF10F0A3EF10F0C45162
:10213800D8A4A1EF10F0A3EF10F0B4EF10F0000E48
:10214800B66F000EB76F000EB86F000EB96FC451AE
:10215800D8A4B1EF10F0B3EF10F0B4EF10F0C26BE9
:10216800C4A1B9EF10F0BBEF10F0BEEF10F0B88FBC
:10217800BFEF10F0B89FD890C431B96FC2AFC7EFA6
:1021880010F0C9EF10F0CAEF10F0B98FB6C0B6F072
:10219800B7C0B7F0B8C0B8F0B9C0B9F01200445031
:1021A800800B4D6E445044244F6E43AEDEEF10F06A
:1021B800E0EF10F0E1EF10F04F804F50D8B4E7EFA8
:1021C80010F0E9EF10F0FDEF10F04F28D8A4EFEF72
:1021D80010F0F1EF10F0F9EF10F0000E416E000E64
:1021E800426E000E436E000E446E438E446A05EF45
:1021F80011F0000E416E000E426E000E436E000E8E
:10220800446E4850800B4E6E4D504E18D8B40FEFA8
:1022180011F011EF11F012EF11F04D8C48504824D5
:102228004E6E47AE1AEF11F01CEF11F01DEF11F0D2
:102238004E804E50D8B423EF11F025EF11F039EF4E
:1022480011F04E28D8A42BEF11F02DEF11F035EF37
:1022580011F0000E456E000E466E000E476E000E21
:10226800486E478E486A41EF11F0000E456E000E29
:10227800466E000E476E000E486E4F504E5CD8B04A
:1022880048EF11F04AEF11F071EF11F04DAC4FEF3C
:1022980011F051EF11F053EF11F0800E4D1A4FC0AD
:1022A80050F04EC04FF050C04EF041C050F045C005
:1022B80041F050C045F042C050F046C042F050C016
:1022C80046F043C050F047C043F050C047F044C008
:1022D80050F048C044F050C048F0506A4F504EC0CB
:1022E80049F04A6A495E000E4A5A4ABE85EF11F023
:1022F8004A5009E11A0E495CD8A085EF11F087EF22
:1023080011F0BEEF11F04150421043104410D8A410
:1023180090EF11F093EF11F0010E94EF11F0000E11
:10232800506E000E416E000E426E000E436E000E9F
:10233800446E4EC04FF0C7EF11F050A0A6EF11F059
:10234800A8EF11F0AEEF11F0D89050300109506E9F
:10235800B0EF11F0D890503241A0B5EF11F0B7EFBF
:1023680011F0B8EF11F0508E443444324332423207
:1023780041324F2A4E504F5CD8A0C5EF11F0C7EF3D
:1023880011F0A1EF11F04DBCCCEF11F0CEEF11F030
:102398000EEF12F04F50D8A4D4EF11F0D6EF11F091
:1023A800E0EF11F0000E416E000E426E000E436E1B
:1023B800000E446E2DEF13F0455041264650422240
:1023C800475043224850442244A0EDEF11F0EFEF6C
:1023D80011F09BEF12F050A0F4EF11F0F6EF11F0AE
:1023E800FCEF11F0D89050300109506EFEEF11F05B
:1023F800D890503241A003EF12F005EF12F006EF2B
:1024080012F0508E443444324332423241324F2A21
:102418009BEF12F04550415C465042584750435894
:102428004450800A496E4850800A4958D8B01FEF76
:1024380012F021EF12F04CEF12F04150455C496E5A
:10244800425046584A6E435047584B6E445048587D
:102458004C6EFF0E4924416EFF0E4A20426EFF0E5D
:102468004B20436EFF0E4C20446E800E4D1A506C6C
:102478005050D8A442EF12F044EF12F054EF12F08B
:10248800010E4126000E42224322442254EF12F04C
:102498004550415E4650425A4750435A4850445A64
:1024A8004150421043104410D8A45DEF12F05FEF82
:1024B80012F094EF12F05050D8A465EF12F067EFC5
:1024C80012F094EF12F0000E416E000E426E000EF4
:1024D800436E000E446E2DEF13F0D890413642360D
:1024E8004336443650AE7BEF12F07DEF12F07EEFAC
:1024F80012F0418050A083EF12F085EF12F089EFBF
:1025080012F0D88050368BEF12F0D89050364F50DA
:10251800D8B491EF12F093EF12F094EF12F04F0647
:1025280043AE99EF12F09BEF12F071EF12F04E6A82
:1025380050AEA1EF12F0A3EF12F0BBEF12F050C0B3
:1025480049F07F0E4916D8B4ACEF12F0AEEF12F096
:10255800B2EF12F0010E4E6EBBEF12F041A0B7EFD2
:1025680012F0B9EF12F0BBEF12F0AEEF12F04E50CE
:10257800D8B4C1EF12F0C3EF12F0EEEF12F0010E73
:102588004126000E42224322442244A0CEEF12F0FC
:10259800D0EF12F0EEEF12F041C049F042C04AF01D
:1025A80043C04BF044C04CF04C344C324B324A32AE
:1025B800493249C041F04AC042F04BC043F04CC0D8
:1025C80044F04F28D8B4EBEF12F0EDEF12F0EEEF35
:1025D80012F04F2A4F28D8B4F4EF12F0F6EF12F0A9
:1025E800FEEF12F04F50D8A4FCEF12F0FEEF12F0FD
:1025F8000FEF13F0000E416E000E426E000E436E98
:10260800000E446E4F50D8A40CEF13F00EEF13F0E9
:102618000FEF13F04D6A4FA014EF13F016EF13F0FD
:1026280019EF13F0438E1AEF13F0439ED8904F30F2
:10263800446E4DAE22EF13F024EF13F025EF13F0A4
:10264800448E41C041F042C042F043C043F044C010
:1026580044F012000001A051800BA96FA051A025E1
:10266800AF6F9FAF3AEF13F03CEF13F03DEF13F06D
:10267800AF81AF51D8B443EF13F045EF13F058EFE3
:1026880013F0AF29D8A44BEF13F04DEF13F055EF2B
:1026980013F0000E9D6F000E9E6F000E9F6F000ED0
:1026A800A06F9F8F60EF13F0000E9D6F000E9E6F5E
:1026B800000E9F6F000EA06FA451800BA91BA451A0
:1026C800A425AA6FA3AF6BEF13F06DEF13F06EEFB5
:1026D80013F0AA81AA51D8B474EF13F076EF13F06F
:1026E80089EF13F0AA29D8A47CEF13F07EEF13F03A
:1026F80086EF13F0000EA16F000EA26F000EA36FFD
:10270800000EA46FA38F91EF13F0000EA16F000EBF
:10271800A26F000EA36F000EA46FAA51D8B497EF52
:1027280013F099EF13F0A1EF13F0AF51D8A49FEF76
:1027380013F0A1EF13F0ABEF13F0000E9D6F000E36
:102748009E6F000E9F6F000EA06F41EF15F0A35112
:102758009D03F3CFB4F0F4CFB5F0B451AB6FAC6BCD
:10276800AD6BAE6BB551B06FB16BB26BB36BA251C1
:102778009E03F3CFB4F0F4CFB5F0B451AB27000EFD
:10278800AC23AD23AE23B551B027000EB123B2233D
:10279800B323A1519F03F3CFB4F0F4CFB5F0B451F4
:1027A800AB27000EAC23AD23AE23B551B027000EE6
:1027B800B123B223B323ADC0AEF0ACC0ADF0ABC013
:1027C800ACF0AB6BA1519E03F3CFB4F0F4CFB5F0EE
:1027D800B451AB27B551AC23000EAD23000EAE2388
:1027E800A2519D03F3CFB4F0F4CFB5F0B451AB27A9
:1027F800B551AC23000EAD23000EAE23ADC0AEF034
:10280800ACC0ADF0ABC0ACF0AB6BA1519D03F3CF46
:10281800B4F0F4CFB5F0B451AB27B551AC23000EEA
:10282800AD23000EAE23A3519E03F3CFB4F0F4CF33
:10283800B5F0B451B027B551B123000EB223000E44
:10284800B323A2519F03F3CFB4F0F4CFB5F0B45142
:10285800B027B551B123000EB223000EB323A35104
:102868009F03F3CFB4F0F4CFB5F0B451A56FB551D1
:10287800A66FA76BA86BA7C0A8F0A6C0A7F0A5C0B5
:10288800A6F0A56BA551B027A651B123A751B22335
:10289800A851B323ABC0A5F0ACC0A6F0ADC0A7F05B
:1028A800AEC0A8F0190E5EEF14F0D890A833A73385
:1028B800A633A533E82E59EF14F0A551B027A65139
:1028C800B123A751B223A851B323ADC0AEF0ACC019
:1028D800ADF0ABC0ACF0AB6BAA51AFC0A5F0A66B26
:1028E800A527000EA623820EA525B46FFF0EA621EC
:1028F800B56F94EF14F0D890B037B137B237B3371B
:10290800AEAF89EF14F08BEF14F08CEF14F0B081B8
:10291800D890AB37AC37AD37AE37B407D8A0B507CA
:10292800B2AF99EF14F09BEF14F07FEF14F0AA6B9D
:10293800AEAFA1EF14F0A3EF14F0C7EF14F0FF0E41
:10294800AB15A56FFF0EAC15A66FFF0EAD15A76FE3
:102958007F0EAE15A86FA551A611A711A811D8B45E
:10296800B8EF14F0BAEF14F0BEEF14F0010EAA6F2E
:10297800C7EF14F0B0A1C3EF14F0C5EF14F0C7EF20
:1029880014F0BAEF14F0AA51D8B4CDEF14F0CFEF89
:1029980014F0F3EF14F0010EB027000EB123B223A8
:1029A800B323B3A1DAEF14F0DCEF14F0F3EF14F073
:1029B800B0C0A5F0B1C0A6F0B2C0A7F0B3C0A8F0EF
:1029C800A835A833A733A633A533A5C0B0F0A6C051
:1029D800B1F0A7C0B2F0A8C0B3F0B44BB52BB5BFE7
:1029E800FEEF14F0B55108E1B429D8A0FEEF14F0B9
:1029F80000EF15F00AEF15F0000EB06F000EB16F82
:102A0800800EB26F7F0EB36F37EF15F0B5BF17EFBB
:102A180015F0B55106E1B405D8B015EF15F017EF6C
:102A280015F022EF15F0000EB06F000EB16F000E1A
:102A3800B26F000EB36FA96B37EF15F0B4C0AFF0EB
:102A4800FF0EB017FF0EB1177F0EB217000EB317A7
:102A5800AFA131EF15F033EF15F034EF15F0B28F69
:102A6800D890AF31B36FA951B313B0C09DF0B1C0C6
:102A78009EF0B2C09FF0B3C0A0F012002B50800BA4
:102A8800346E2B502B243A6E2AAE4DEF15F04FEFD3
:102A980015F050EF15F03A803A50D8B456EF15F0CB
:102AA80058EF15F06BEF15F03A28D8A45EEF15F043
:102AB80060EF15F068EF15F0000E286E000E296E15
:102AC800000E2A6E000E2B6E2A8E73EF15F0000E84
:102AD800286E000E296E000E2A6E000E2B6E2F50E7
:102AE800800B341A2F502F24396E2EAE7EEF15F03E
:102AF80080EF15F081EF15F039803950D8B487EFA1
:102B080015F089EF15F09CEF15F03928D8A48FEF50
:102B180015F091EF15F099EF15F0000E2C6E000EE0
:102B28002D6E000E2E6E000E2F6E2E8EA4EF15F059
:102B3800000E2C6E000E2D6E000E2E6E000E2F6EE7
:102B48003950D8B4AAEF15F0ACEF15F0B4EF15F082
:102B58003A50D8A4B2EF15F0B4EF15F0BEEF15F067
:102B6800000E286E000E296E000E2A6E000E2B6EC7
:102B780054EF17F02E502802F3CF3FF0F4CF40F077
:102B88003F50356E366A376A386A40503B6E3C6A49
:102B98003D6A3E6A2D502902F3CF3FF0F4CF40F052
:102BA8003F503526000E36223722382240503B2629
:102BB800000E3C223D223E222C502A02F3CF3FF049
:102BC800F4CF40F03F503526000E36223722382207
:102BD80040503B26000E3C223D223E2237C038F0B2
:102BE80036C037F035C036F0356A2C502902F3CF9D
:102BF8003FF0F4CF40F03F50352640503622000ECB
:102C08003722000E38222D502802F3CF3FF0F4CFA0
:102C180040F03F50352640503622000E3722000E35
:102C2800382237C038F036C037F035C036F0356A4C
:102C38002C502802F3CF3FF0F4CF40F03F50352618
:102C480040503622000E3722000E38222E5029021C
:102C5800F3CF3FF0F4CF40F03F503B2640503C22AA
:102C6800000E3D22000E3E222D502A02F3CF3FF0E7
:102C7800F4CF40F03F503B2640503C22000E3D220E
:102C8800000E3E222E502A02F3CF3FF0F4CF40F040
:102C98003F50306E4050316E326A336A32C033F082
:102CA80031C032F030C031F0306A30503B263150FC
:102CB8003C2232503D2233503E2235C030F036C0DF
:102CC80031F037C032F038C033F0190E71EF16F01A
:102CD800D8903332323231323032E82E6CEF16F07F
:102CE80030503B2631503C2232503D2233503E2258
:102CF80037C038F036C037F035C036F0356A39504D
:102D08003AC030F0316A3026000E3122820E30246B
:102D18003F6EFF0E3120406EA7EF16F0D8903B367D
:102D28003C363D363E3638AE9CEF16F09EEF16F038
:102D38009FEF16F03B80D890353636363736383622
:102D48003F06D8A040063DAEACEF16F0AEEF16F049
:102D580092EF16F0396A38AEB4EF16F0B6EF16F007
:102D6800DAEF16F0FF0E3514306EFF0E3614316EA2
:102D7800FF0E3714326E7F0E3814336E3050311018
:102D880032103310D8B4CBEF16F0CDEF16F0D1EFE8
:102D980016F0010E396EDAEF16F03BA0D6EF16F0FA
:102DA800D8EF16F0DAEF16F0CDEF16F03950D8B4A8
:102DB800E0EF16F0E2EF16F006EF17F0010E3B26F3
:102DC800000E3C223D223E223EA0EDEF16F0EFEF32
:102DD80016F006EF17F03BC030F03CC031F03DC0B4
:102DE80032F03EC033F033343332323231323032A3
:102DF80030C03BF031C03CF032C03DF033C03EF053
:102E08003F4A402A40BE11EF17F0405008E13F28E2
:102E1800D8A011EF17F013EF17F01DEF17F0000E01
:102E28003B6E000E3C6E800E3D6E7F0E3E6E4AEF8E
:102E380017F040BE2AEF17F0405006E13F04D8B023
:102E480028EF17F02AEF17F035EF17F0000E3B6E5A
:102E5800000E3C6E000E3D6E000E3E6E346A4AEF68
:102E680017F03FC03AF0FF0E3B16FF0E3C167F0EE0
:102E78003D16000E3E163AA044EF17F046EF17F045
:102E880047EF17F03D8ED8903A303E6E34503E12E0
:102E98003BC028F03CC029F03DC02AF03EC02BF0D2
:102EA800120000018751800B946F875187259B6F13
:102EB80086AF61EF17F063EF17F064EF17F09B81AF
:102EC8009B51D8B46AEF17F06CEF17F080EF17F04A
:102ED8009B29D8A472EF17F074EF17F07CEF17F066
:102EE800000E846F000E856F000E866F000E876FD0
:102EF800868F876B88EF17F0000E846F000E856F42
:102F0800000E866F000E876F8B51800B941B8B51C0
:102F18008B259C6F8AAF93EF17F095EF17F096EF1C
:102F280017F09C819C51D8B49CEF17F09EEF17F0D6
:102F3800B2EF17F09C29D8A4A4EF17F0A6EF17F06A
:102F4800AEEF17F0000E886F000E896F000E8A6FC3
:102F5800000E8B6F8A8F8B6BBAEF17F0000E886F9D
:102F6800000E896F000E8A6F000E8B6F88518911D1
:102F78008A118B11D8A4C3EF17F0C5EF17F0DDEF56
:102F880017F0000E846F000E856F000E866F000E1E
:102F9800876F800E86137F0E87139451871384C022
:102FA80084F085C085F086C086F087C087F01DEF65
:102FB80019F09B51D8A4E3EF17F0E5EF17F0EFEF06
:102FC80017F0000E846F000E856F000E866F000EDE
:102FD800876F1DEF19F09C519BC08CF08D6B8C5F37
:102FE800000E8D5B7F0E8C25956F000E8D21966FE0
:102FF80084C090F085C091F086C092F087C093F0AD
:10300800000E846F000E856F000E866F000E876FAE
:10301800000E976F000E986F000E996F000E9A6F52
:103028009C6B4FEF18F09C51D8B41DEF18F01FEFB0
:1030380018F036EF18F0D8909037913792379337C9
:10304800D89084378537863787379AAF2EEF18F0B0
:1030580030EF18F031EF18F08481D890973798370F
:1030680099379A378851905D895191598A51925967
:103078008B519359D8A043EF18F045EF18F04EEF55
:1030880018F09A8D8851905F8951915B8A51925BB3
:103098008B51935B9C2B190E9C6555EF18F057EFDD
:1030A80018F017EF18F09051911192119311D8B4AC
:1030B80060EF18F062EF18F07AEF18F097817AEF66
:1030C80018F0D89084378537863787379AAF6FEFEF
:1030D80018F071EF18F072EF18F08481D8909737D4
:1030E800983799379A379507D8A0960786AF7FEF14
:1030F80018F081EF18F065EF18F09C6B9AAF87EF26
:1031080018F089EF18F0ADEF18F0FF0E97158C6FD7
:10311800FF0E98158D6FFF0E99158E6F7F0E9A15FD
:103128008F6F8C518D118E118F11D8B49EEF18F0BE
:10313800A0EF18F0A4EF18F0010E9C6FADEF18F097
:1031480084A1A9EF18F0ABEF18F0ADEF18F0A0EFDD
:1031580018F09C51D8B4B3EF18F0B5EF18F0D9EFC8
:1031680018F0010E8427000E85238623872387A164
:10317800C0EF18F0C2EF18F0D9EF18F084C08CF047
:1031880085C08DF086C08EF087C08FF08F358F3365
:103198008E338D338C338CC084F08DC085F08EC017
:1031A80086F08FC087F0954B962B96BFE4EF18F00A
:1031B800965108E19529D8A0E4EF18F0E6EF18F049
:1031C800F1EF18F0000E966F9569000E846F000EEF
:1031D800856F000E866F000E876F96BFFEEF18F0A2
:1031E800965106E19505D8B0FCEF18F0FEEF18F0FF
:1031F8000BEF19F0000E966F000E956F000E846F9E
:10320800000E856F000E866F000E876F946B95C059
:103218009BF09BA112EF19F014EF19F017EF19F0BA
:10322800868F18EF19F0869FD8909B31876FD1EF62
:1032380017F012001250800B1F6E12501224266EC7
:1032480011AE29EF19F02BEF19F02CEF19F02680A9
:103258002650D8B432EF19F034EF19F048EF19F0CE
:103268002628D8A43AEF19F03CEF19F044EF19F0EA
:10327800000E0F6E000E106E000E116E000E126E14
:10328800118E126A50EF19F0000E0F6E000E106EBC
:10329800000E116E000E126E1650800B1F1A16507B
:1032A8001624276E15AE5BEF19F05DEF19F05EEF8F
:1032B80019F027802750D8B464EF19F066EF19F099
:1032C8007AEF19F02728D8A46CEF19F06EEF19F0EF
:1032D80076EF19F0000E136E000E146E000E156EC8
:1032E800000E166E158E166A82EF19F0000E136E18
:1032F800000E146E000E156E000E166E135014108C
:1033080015101610D8A48BEF19F08DEF19F0A5EF52
:1033180019F0000E0F6E000E106E000E116E000EEA
:10332800126E800E11127F0E12121F5012120FC051
:103338000FF010C010F011C011F012C012F0E5EF3C
:103348001AF02650D8A4ABEF19F0ADEF19F0B7EF8B
:1033580019F0000E0F6E000E106E000E116E000EAA
:10336800126EE5EF1AF0275026C017F0186A175E9C
:10337800000E185A7F0E1724206E000E1820216E9A
:103388000FC01BF010C01CF011C01DF012C01EF0C1
:10339800000E0F6E000E106E000E116E000E126EF3
:1033A800000E226E000E236E000E246E000E256E97
:1033B800276A17EF1AF02750D8B4E5EF19F0E7EFAE
:1033C80019F0FEEF19F0D8901B361C361D361E3644
:1033D800D8900F3610361136123625AEF6EF19F0A2
:1033E800F8EF19F0F9EF19F00F80D890223623364C
:1033F8002436253613501B5C14501C5815501D5884
:1034080016501E58D8A00BEF1AF00DEF1AF016EF51
:103418001AF0258C13501B5E14501C5A15501D5A57
:1034280016501E5A272A190E27641DEF1AF01FEF8F
:103438001AF0DFEF19F01B501C101D101E10D8B425
:1034480028EF1AF02AEF1AF042EF1AF0228042EF22
:103458001AF0D8900F3610361136123625AE37EFDF
:103468001AF039EF1AF03AEF1AF00F80D890223696
:103478002336243625362006D8A0210611AE47EF7C
:103488001AF049EF1AF02DEF1AF0276A25AE4FEF20
:103498001AF051EF1AF075EF1AF0FF0E2214176E9A
:1034A800FF0E2314186EFF0E2414196E7F0E2514B8
:1034B8001A6E1750181019101A10D8B466EF1AF0AF
:1034C80068EF1AF06CEF1AF0010E276E75EF1AF01C
:1034D8000FA071EF1AF073EF1AF075EF1AF068EF9A
:1034E8001AF02750D8B47BEF1AF07DEF1AF0A1EF4D
:1034F8001AF0010E0F26000E10221122122212A01D
:1035080088EF1AF08AEF1AF0A1EF1AF00FC017F03F
:1035180010C018F011C019F012C01AF01A341A327B
:1035280019321832173217C00FF018C010F019C02E
:1035380011F01AC012F0204A212A21BEACEF1AF06D
:10354800215008E12028D8A0ACEF1AF0AEEF1AF00D
:10355800B9EF1AF0000E216E2068000E0F6E000EF3
:10356800106E000E116E000E126E21BEC6EF1AF01C
:10357800215006E12004D8B0C4EF1AF0C6EF1AF0C3
:10358800D3EF1AF0000E216E000E206E000E0F6EA3
:10359800000E106E000E116E000E126E1F6A20C013
:1035A80026F026A0DAEF1AF0DCEF1AF0DFEF1AF0B7
:1035B800118EE0EF1AF0119ED8902630126E99EF16
:1035C80019F0120035C1D9FF36C1DAFFDECFF6FF98
:1035D800DDCFF7FF0800F550250AD8A4F6EF1AF05A
:1035E800F8EF1AF03FEF1CF035C1D9FF36C1DAFF0A
:1035F800DE2A000EDD22000E01019C6F000E9B6F7B
:103608009BC1E5F09D699E6935C1D9FF36C1DAFFD6
:10361800DECFF6FFDDCFF7FF0800F5502E0AD8A45D
:1036280018EF1BF01AEF1BF02FEF1BF035C1D9FF75
:1036380036C1DAFFDE2A000EDD2235C176F036C14A
:1036480077F037C178F038C179F0CFEC2CF076C03C
:103658009DF177C09EF135C1D9FF36C1DAFFDECFC3
:103668003EF1DDCF3FF13EC1F6FF3FC1F7FF080055
:10367800F550640AD8B443EF1BF045EF1BF053EF45
:103688001BF03EC1F6FF3FC1F7FF0800F550690A7D
:10369800D8A451EF1BF053EF1BF085EF1BF037C197
:1036A800D9FF38C1DAFFDFCFD2F0020EDE26DFCF36
:1036B800D3F0000EDD22D2C0D9FFD3C0DAFFDECFAF
:1036C80039F1DDCF3AF1010E01013E250001D26F3B
:1036D800000E01013F210001D36F35C1D9FF36C16A
:1036E800DAFFD2C0DEFFD3C0DDFF33C18FF034C1B3
:1036F80090F039C191F03AC192F0D7EC24F054EF30
:103708001CF035C1D9FF36C1DAFFDECF3EF1DDCF7F
:103718003FF13EC1F6FF3FC1F7FF0800F5CF3DF18D
:10372800A1EF1BF03E4B3F2BB1EF1BF06C0E3D6F32
:10373800B1EF1BF03D6BB1EF1BF001013D514C0A9D
:10374800D8B496EF1BF02A0AD8B49AEF1BF00A0AED
:10375800D8B496EF1BF09EEF1BF03EC1F6FF3FC1B9
:10376800F7FF0800F550660AD8A4BDEF1BF0BFEFBD
:103778001BF036EF1CF0F5EF1BF037C1D9FF38C14D
:10378800DAFFDFCFD2F0040EDE26DFCFD3F0000E53
:10379800DD22D2C0D9FFD3C0DAFFDECF39F1DECFC8
:1037A8003AF1DECF3BF1DECF3CF100EF1CF037C140
:1037B800D9FF38C1DAFFDFCFD2F0040EDE26DFCF23
:1037C800D3F0000EDD22D2C0D9FFD3C0DAFFDECF9E
:1037D80039F1DECF3AF1DECF3BF1DECF3CF100EF3D
:1037E8001CF03D514C0AD8B4DBEF1BF0200AD8B4CA
:1037F800C1EF1BF000EF1CF0010E3E250001D26F57
:10380800000E01013F210001D36F35C1D9FF36C138
:10381800DAFFD2C0DEFFD3C0DDFF2AEF1CF033C1D0
:1038280000F134C101F139C102F13AC103F13BC1E0
:1038380004F13CC105F13EC1F6FF3FC1F7FF0800A6
:10384800F5CF06F13BEC09F054EF1CF03EC1F6FF52
:103858003FC1F7FF0800F550660AD8B413EF1CF013
:1038680036EF1CF035C1D9FF36C1DAFFDE2A000E6B
:10387800DD2254EF1CF035C1D9FF36C1DAFFDECFA7
:10388800F6FFDDCFF7FF0800F5500001766F776B84
:1038980033C178F034C179F069EC2CF036EF1CF0C4
:1038A80012009D8CF28A828C000E0101776F000E47
:1038B800766F000E756F000E746F030E01015E6F58
:1038C800080E5D6F770EE82EFED75D2FFCD75E2FB2
:1038D800FAD79CEC2EF0B6C095F1B7C096F1B8C0F7
:1038E80097F1B9C098F113EC27F0D0C0A1F1D1C07D
:1038F800A2F170EC21F00101736F420E7319D8A484
:1039080088EF1CF08AEF1CF08CEF1CF08FEF1DF095
:103918000001DCBF9DEF1CF0DC510DE1A10ED95D6B
:10392800860EDA59010EDB59D8A09DEF1CF09FEFE7
:103938001CF0A1EF1CF084EC36F0010174519F19C2
:1039480009E17551A019D8B4ACEF1CF0AEEF1CF02A
:1039580071EF1DF0030E9F155D6F000EA0155E6FD1
:103968005D515E11D8A4BBEF1CF0BDEF1CF071EFE8
:103978001DF0010E76250001766F000E01017721FA
:103988000001776F000E796F030E786FEEEC2DF063
:1039980076C076F177C077F19FC174F1A0C175F157
:1039A80071EF1DF077EC36F0800E47EC34F05F0EC7
:1039B8000101486F010E496FFC0E4A6F7E0E4B6F76
:1039C80095C14CF196C14DF197C14EF198C14FF197
:1039D800BAEC32F05F0E0001776F010E786F69EC78
:1039E80030F0210E01015D6F760EE82EFED75D2FB7
:1039F800FCD70000C00E47EC34F05F0E0101486FA1
:103A0800010E496F360E4A6F7F0E4B6FA1C14CF104
:103A1800A2C14DF1BAEC32F05F0E0001776F010ED2
:103A2800786F69EC30F08CEF1DF077EC36F0800E93
:103A380047EC34F05F0E0101486F010E496F740EB8
:103A48004A6F7F0E4B6F8AEC34F0D0C04CF1D1C076
:103A58004DF1BAEC32F05F0E0001776F010E786F0E
:103A680069EC30F0210E01015D6F760EE82EFED76D
:103A78005D2FFCD70000C00E47EC34F05F0E01014B
:103A8800486F010E496FAB0E4A6F7F0E4B6FD5C062
:103A98004CF1D6C04DF1D7C04EF1D8C04FF1BAECB9
:103AA80032F010EF1DF077EC36F0800E47EC34F072
:103AB8005F0E0101486F010E496F430E4A6F7F0E7A
:103AC8004B6F91C14CF192C14DF193C14EF194C12C
:103AD8004FF1BAEC32F010EF1DF076C15DF177C10D
:103AE8005EF101015E51000AD8B47DEF1DF08CEF44
:103AF8001DF05D51000AD8B4D6EF1CF0010AD8B405
:103B080019EF1DF0030AD8B457EF1DF08CEF1DF024
:103B18009D9C61EF1CF0120077EC36F0800E47ECAC
:103B280034F0EC0E0001776F7E0E786F69EC30F0A0
:103B3800C00E47EC34F09B0E0001776F7E0E786F55
:103B480069EC30F0330E01015E6FBB0E5D6FDF0E66
:103B5800E82EFED75D2FFCD75E2FFAD700D0030ED4
:103B680001015E6F8A0E5D6F550EE82EFED75D2F40
:103B7800FCD75E2FFAD700D077EC36F0800E47ECF2
:103B880034F05D0E0001776F7F0E786F69EC30F0CE
:103B9800C00E47EC34F0280E0001776F7F0E786F67
:103BA80069EC30F070EC21F00101736F7351D8B4F7
:103BB800E0EF1DF0E2EF1DF0B3EF1DF0420E7319B8
:103BC800D8A4E9EF1DF0EBEF1DF010EF1EF077EC35
:103BD80036F0820E47EC34F0500E0001776F7F0EFE
:103BE800786F69EC30F0C10E47EC34F0DC0E000160
:103BF800776F7E0E786F69EC30F0330E01015E6FDF
:103C0800BB0E5D6FDF0EE82EFED75D2FFCD75E2F53
:103C1800FAD700D09BEF1EF0310E7319D8A417EF16
:103C28001EF019EF1EF045EF1EF077EC36F0800E0F
:103C380047EC34F05F0E0101486F010E496F8A0EA0
:103C48004A6F7F0E4B6FE6C04CF1E7C04DF1E8C0FC
:103C58004EF1E9C04FF1BAEC32F05F0E0001776F18
:103C6800010E786F69EC30F0330E01015E6FBB0E08
:103C78005D6FDF0EE82EFED75D2FFCD75E2FFAD7DB
:103C880000D0320E01017319D8A44DEF1EF04FEF8A
:103C98001EF0B3EF1DF077EC36F0800E47EC34F0F1
:103CA800950E0001776F7F0E786F69EC30F0C00ECB
:103CB80047EC34F0690E0001776F7F0E786F69EC7E
:103CC80030F0330E01015E6FBB0E5D6FDF0EE82E24
:103CD800FED75D2FFCD75E2FFAD700D077EC36F0F1
:103CE8009AEC25F077EC36F0850E47EC34F0310E7F
:103CF8000001776F7F0E786F69EC30F0C30E47ECE8
:103D080034F0C70E0001776F7F0E786F69EC30F0E2
:103D18001A0E01015E6F5E0E5D6F6E0EE82EFED705
:103D28005D2FFCD75E2FFAD70000B3EF1DF012000D
:103D380081C1ADF082C1AEF083C1AFF084C1B0F0F3
:103D48009DC0ADF09EC0AEF09FC0AFF0A0C0B0F077
:103D5800810E0001A16FFF0EA26FADC0A3F0AEC02F
:103D6800A4F0AFC0A5F0B0C0A6F0180EC1EF1EF0C9
:103D7800D890A633A533A433A333E82EBCEF1EF0A6
:103D8800A351A125AB6F000EA221AC6FACBFD6EF3B
:103D98001EF0AC5109E1170EAB5DD8A0D6EF1EF0AE
:103DA800D8EF1EF0E2EF1EF09DC09DF09EC09EF081
:103DB8009FC09FF0A0C0A0F0A6EF1FF0ACBFE7EF38
:103DC8001EF0E9EF1EF05AEF1FF0ABC0A1F0FF0E96
:103DD800A26FFF0EA36F7F0EA46F000EA56FA167E1
:103DE800F8EF1EF000EF1FF0A535A533A433A33379
:103DF800A233A12FF3EF1EF0A2C0A7F0A3C0A8F032
:103E0800A4C0A9F0A5C0AAF00001A751AD15A16FE3
:103E1800A851AE15A26FA951AF15A36FAA51B0153D
:103E2800A46FA151A211A311A411D8A41EEF1FF0D1
:103E380020EF1FF022EF1FF0D8EF1EF0ADC0A1F069
:103E4800AEC0A2F0AFC0A3F0B0C0A4F0200E32EF15
:103E58001FF0D890A433A333A233A133E82E2DEF5B
:103E68001FF0A151A211A311A411D8B43EEF1FF065
:103E780040EF1FF048EF1FF0A751AD27A851AE2320
:103E8800A951AF23AA51B023A71DA16FA81DA26FE6
:103E9800A91DA36FAA1DA46FA151AD17A251AE17FA
:103EA800A351AF17A451B0179EEF1FF0ADC0A1F0FA
:103EB800AEC0A2F0AFC0A3F0B0C0A4F0200E6AEF6D
:103EC8001FF0D890A433A333A233A133E82E65EFB3
:103ED8001FF0A151A211A311A411D8A476EF1FF0CD
:103EE80078EF1FF082EF1FF0000EAD6F000EAE6F7F
:103EF800000EAF6F000EB06F9EEF1FF0D890AD357B
:103F0800A16FAE35A26FAF35A36FB035A46FA151C5
:103F1800A211A311A411D8B494EF1FF096EF1FF0CB
:103F28009EEF1FF0000EAD6F000EAE6F800EAF6FEC
:103F3800BF0EB06FADC09DF0AEC09EF0AFC09FF099
:103F4800B0C0A0F0120022C001F023C002F024C0CB
:103F580003F025C004F0000E056E000E066EC80EB4
:103F6800076E410E086E73EC2AF0D8A0BEEF1FF062
:103F7800C0EF1FF00EEF20F0839083928394839616
:103F8800829CC290000E0001E26F010EE16F90EC7E
:103F980036F0850EC9EC34F0E60E026E7F0E036E25
:103FA800DCEC30F0C50EC9EC34F0D80E026E7F0E92
:103FB800036EDCEC30F01A0E276E5E0E266E6E0E67
:103FC800E82EFED7262EFCD7272EFAD700D090EC65
:103FD80036F0860EC9EC34F0ED0E026E7F0E036EDD
:103FE800DCEC30F0C40EC9EC34F0810E026E7E0EAB
:103FF800036EDCEC30F0330E276EBB0E266EE00E3F
:10400800E82EFED7262EFCD7272EFAD775EC2BF0F4
:1040180082EF20F022C001F023C002F024C003F098
:1040280025C004F0000E056E000E066EC80E076E61
:10403800410E086E73EC2AF0D8B025EF20F027EF78
:1040480020F046EF20F022C001F023C002F024C087
:1040580003F025C004F0000E056E000E066E700E0B
:10406800076E410E086E73EC2AF0D8A03EEF20F0E0
:1040780040EF20F046EF20F083908392839483866C
:1040880082EF20F022C001F023C002F024C003F028
:1040980025C004F0000E056E000E066E700E076E49
:1040A800410E086E73EC2AF0D8B05DEF20F05FEF98
:1040B80020F07EEF20F022C001F023C002F024C0DF
:1040C80003F025C004F0000E056E000E066E200EEB
:1040D800076E410E086E73EC2AF0D8A076EF20F038
:1040E80078EF20F07EEF20F083908392838483869C
:1040F80082EF20F08390838283848386000E000100
:10410800E06F020EDF6F000EDE6F010EDD6F120032
:1041180077EC36F0800E47EC34F0EC0E0001776F48
:104128007E0E786F69EC30F0C00E47EC34F09B0ED1
:104138000001776F7E0E786F69EC30F0330E000166
:10414800986FBB0E976FDF0EE82EFED7972FFCD720
:10415800982FFAD700D0080E0001986F9D0E976F20
:10416800050EE82EFED7972FFCD7982FFAD700D048
:1041780077EC36F0800E47EC34F0BC0E0001776F18
:104188007E0E786F69EC30F0C00E47EC34F0560EB6
:104198000001776F7E0E786F69EC30F070EC21F0DB
:1041A80000019E6F9E51D8B4DCEF20F0DEEF20F0C6
:1041B800AFEF20F0420E9E19D8A4E5EF20F0E7EF0C
:1041C80020F00CEF21F077EC36F0820E47EC34F05B
:1041D800500E0001776F7F0E786F69EC30F0C10EDA
:1041E80047EC34F0DC0E0001776F7E0E786F69ECD7
:1041F80030F0330E0001986FBB0E976FDF0EE82E7C
:10420800FED7972FFCD7982FFAD700D06FEF21F061
:10421800310E9E19D8A413EF21F015EF21F061EFAC
:1042280021F077EC36F0800E47EC34F01E0E0001DA
:10423800776F7F0E786F69EC30F0C00E47EC34F082
:10424800990E00018A6F94EC2DF0990E00017A6F97
:104258003FEC35F000017A517B11D8B436EF21F0EC
:1042680038EF21F053EF21F077EC36F0800E47EC71
:1042780034F08A0E0001776F7E0E786F69EC30F0AB
:10428800330E0001986FBB0E976FDF0EE82EFED736
:10429800972FFCD7982FFAD700D061EF21F077EC51
:1042A80036F0800E47EC34F0790E0001776F7E0E01
:1042B800786F69EC30F044EF21F0320E00019E195E
:1042C800D8A469EF21F06BEF21F0AFEF20F04BECB1
:1042D80031F0AFEF20F01200330EF66E7E0EF76E5F
:1042E80020EE78F00F0E0900F5CFDEFFE806FBE2BE
:1042F800000E0001896F000E886F9BEF21F08190FE
:10430800818281848186B9EF21F0818081928184C4
:104318008186B9EF21F08180818281948186B9EF0D
:1043280021F08180818281848196B9EF21F088C053
:1043380076F089C077F07751000AD8B4A6EF21F05B
:10434800B9EF21F07651000AD8B483EF21F0010AC1
:10435800D8B489EF21F0030AD8B48FEF21F0010A0D
:10436800D8B495EF21F0B9EF21F081B8BEEF21F074
:10437800C0EF21F0D7EF21F0030E0001776F8A0E0E
:10438800766F550EE82EFED7762FFCD7772FFAD703
:1043980000D000018851040DF350780FD96EDA6A05
:1043A800DF504EEF22F081BADCEF21F0DEEF21F092
:1043B800F9EF21F0030E0001776F8A0E766F550E24
:1043C800E82EFED7762FFCD7772FFAD700D000013A
:1043D8008851040DF3CF76F0010E76277651780FC9
:1043E800D96EDA6ADF504EEF22F081BCFEEF21F081
:1043F80000EF22F01BEF22F0030E0001776F8A0E08
:10440800766F550EE82EFED7762FFCD7772FFAD782
:1044180000D000018851040DF3CF76F0020E762704
:104428007651780FD96EDA6ADF504EEF22F081BEEE
:1044380020EF22F022EF22F03DEF22F0030E0001E0
:10444800776F8A0E766F550EE82EFED7762FFCD73B
:10445800772FFAD700D000018851040DF3CF76F0FA
:10446800030E76277651780FD96EDA6ADF504EEF51
:1044780022F0884B892B89BF4BEF22F0895109E143
:10448800040E885DD8A04BEF22F04DEF22F09BEF91
:1044980021F0000E120000017E6F00017E51D8B499
:1044A80058EF22F05AEF22F07CEF22F079BF61EF4B
:1044B80022F05FEF22F07CEF22F076C07AF077C02E
:1044C8007BF078C07CF079C07DF07A1F7B1F7C1F61
:1044D8007D1F7A2B000E7B237C237D237AC080F0FE
:1044E8007BC081F07CC082F07DC083F084EF22F035
:1044F80076C080F077C081F078C082F079C083F010
:104508007651771178117911D8A48DEF22F08FEFB9
:1045180022F099EF22F0000E766F000E776F000EF2
:10452800786F000E796F2AEF23F0960E7F6FA3EF56
:1045380022F07F2BD8908333823381338033000E6F
:1045480080157A6F000E81157B6F000E82157C6FC7
:10455800FE0E83157D6F7A517B117C117D11D8A4D5
:10456800B8EF22F0BAEF22F09DEF22F0C8EF22F068
:104578007F2B010E8027000E812382238323D8906E
:104588008333823381338033000E80157A6F000EB7
:1045980081157B6F000E82157C6FFF0E83157D6F72
:1045A8007A517B117C117D11D8A4DDEF22F0DFEF69
:1045B80022F0BCEF22F0E7EF22F07F07D890803797
:1045C80081378237833782BFECEF22F0EEEF22F09B
:1045D800F6EF22F0020E7F61F4EF22F0F6EF22F000
:1045E800E1EF22F07FB1FBEF22F0FDEF22F0FEEFCA
:1045F80022F0829FD8907F337FC07AF07B6B7C6BF0
:104608007D6B7AC07DF07C6B7B6B7A6B7A51801303
:104618007B5181137C5182137D5183137E51D8B411
:1046280018EF23F01AEF23F022EF23F079BF21EFE0
:1046380023F01FEF23F022EF23F0838F80C076F062
:1046480081C077F082C078F083C079F01200096EDB
:104658000950D8B432EF23F034EF23F056EF23F0AB
:1046680004BE3BEF23F039EF23F056EF23F001C0EF
:1046780005F002C006F003C007F004C008F0051EEC
:10468800061E071E081E052A000E062207220822FB
:1046980005C00BF006C00CF007C00DF008C00EF006
:1046A8005EEF23F001C00BF002C00CF003C00DF068
:1046B80004C00EF00150021003100410D8A467EFD4
:1046C80023F069EF23F073EF23F0000E016E000E64
:1046D800026E000E036E000E046E04EF24F0960EB8
:1046E8000A6E7DEF23F00A2AD8900E320D320C3272
:1046F8000B32000E0B14056E000E0C14066E000E25
:104708000D14076EFE0E0E14086E055006100710E5
:104718000810D8A492EF23F094EF23F077EF23F05A
:10472800A2EF23F00A2A010E0B26000E0C220D22FE
:104738000E22D8900E320D320C320B32000E0B14B2
:10474800056E000E0C14066E000E0D14076EFF0E9B
:104758000E14086E0550061007100810D8A4B7EFFD
:1047680023F0B9EF23F096EF23F0C1EF23F00A0608
:10477800D8900B360C360D360E360DBEC6EF23F02C
:10478800C8EF23F0D0EF23F0020E0A60CEEF23F03B
:10479800D0EF23F0BBEF23F00AB0D5EF23F0D7EF2B
:1047A80023F0D8EF23F00D9ED8900A320AC005F006
:1047B800066A076A086A05C008F0076A066A056A91
:1047C80005500B1206500C1207500D1208500E120D
:1047D8000950D8B4F2EF23F0F4EF23F0FCEF23F004
:1047E80004BEFBEF23F0F9EF23F0FCEF23F00E8E6D
:1047F8000BC001F00CC002F00DC003F00EC004F0B5
:104808001200330EF66E7E0EF76E20EE03F00F0EDA
:104818000900F5CFDEFFE806FBE2000E146E000E7D
:10482800136E2FEF24F081908182818481864DEF71
:1048380024F081808192818481864DEF24F08180EB
:104848008182819481864DEF24F0818081828184E8
:1048580081964DEF24F013C001F014C002F002500D
:10486800000AD8B43AEF24F04DEF24F00150000AC2
:10487800D8B417EF24F0010AD8B41DEF24F0030AC6
:10488800D8B423EF24F0010AD8B429EF24F04DEF6F
:1048980024F081B852EF24F054EF24F068EF24F0AC
:1048A800030E026E8A0E016E560EE82EFED7012EFA
:1048B800FCD7022EFAD71350040DF350030FD96E0C
:1048C800DA6ADF50D6EF24F081BA6DEF24F06FEF8B
:1048D80024F087EF24F0030E026E8A0E016E560E46
:1048E800E82EFED7012EFCD7022EFAD71350040D5E
:1048F800F3CF01F0010E01260150030FD96EDA6AD9
:10490800DF50D6EF24F081BC8CEF24F08EEF24F03A
:10491800A6EF24F0030E026E8A0E016E560EE82EE4
:10492800FED7012EFCD7022EFAD71350040DF3CF71
:1049380001F0020E01260150030FD96EDA6ADF502A
:10494800D6EF24F081BEABEF24F0ADEF24F0C5EF35
:1049580024F0030E026E8A0E016E560EE82EFED764
:10496800012EFCD7022EFAD71350040DF3CF01F015
:10497800030E01260150030FD96EDA6ADF50D6EF15
:1049880024F0134A142A14BED3EF24F0145009E17A
:10499800040E135CD8A0D3EF24F0D5EF24F02FEF4A
:1049A80024F0000E1200000192BFDDEF24F0E0EFCA
:1049B80024F0010EE1EF24F0000E996F01019EBF73
:1049C800EAEF24F0E8EF24F0F1EF24F0000E000104
:1049D800986F010E976FF5EF24F09DC197F09EC177
:1049E80098F09BC195F09CC196F000019951D8B4FC
:1049F80000EF25F002EF25F019EF25F09507D8A074
:104A080096079951D8A40BEF25F00DEF25F013EF79
:104A180025F0000E946F2B0E936F17EF25F0000E04
:104A2800946F2D0E936F93C099F0000E9B6F4F0EED
:104A38009A6F0101F26B52EF25F09A07D8A09B07F5
:104A4800A30E9A25D96E010E9B21DA6E91C076F0DD
:104A580092C077F0000E796F0A0E786FEEEC2DF0A9
:104A680076C07CF077C07DF076EC35F000017C51A3
:104A7800300FDF6E9707D8A098079507D8A096073C
:104A880091C076F092C077F0000E796F0A0E786FB9
:104A980032EC2DF076C091F077C092F000019BBF08
:104AA8005EEF25F09B5108E19A05D8A05EEF25F04E
:104AB80060EF25F076EF25F091519211D8A467EFB9
:104AC80025F069EF25F021EF25F098BF76EF25F066
:104AD800985106E19705D8B074EF25F076EF25F0E8
:104AE80021EF25F09951D8B47CEF25F07EEF25F021
:104AF80089EF25F09A07D8A09B07A30E9A25D96EAF
:104B0800010E9B21DA6E99C0DFFF8FC086F090C03E
:104B180087F0A30E9A25886F010E9B21896F95C097
:104B28008AF096C08BF0A3EC30F0120021EE11F061
:104B3800050EDE6AE806FDE2000E0101186F000EA0
:104B4800176F77EC36F0800E47EC34F0820E0001D8
:104B5800CC6FDD0EE82EFED7CC2FFCD700D0AC0EE4
:104B68000001776F7E0E786F69EC30F0C00E47EC6D
:104B780034F0070E0001CD6F580ECC6F590EE82E99
:104B8800FED7CC2FFCD7CD2FFAD700D070EC21F070
:104B98000101196F1951D8B4D4EF25F0D6EF25F0DB
:104BA800BDEF25F0410E1919D8A4DDEF25F0DFEF90
:104BB80025F0FBEF25F0110E1725D96E010E1821EF
:104BC800DA6EDF6A110E0001C26F010EC36F000EAC
:104BD800C46F000EC56F09EC00F0C2C0E6F0C3C098
:104BE800E7F0C4C0E8F0C5C0E9F059EF26F019C1F4
:104BF800CCF0D00E0001CC27090ECC6506EF26F0CC
:104C080008EF26F012EF26F02A0E01011919D8A490
:104C180010EF26F012EF26F0BDEF25F0010118BFC6
:104C280021EF26F0185107E1090E175DD8B01FEFE4
:104C380026F021EF26F057EF26F02A0E1919D8A4EE
:104C480028EF26F02AEF26F036EF26F0110E17256A
:104C5800D96E010E1821DA6E2E0EDF6E174B182B47
:104C680040EF26F0110E1725D96E010E1821DA6EC5
:104C780019C1DFFF32EF26F02A0E1919D8B447EF11
:104C880026F049EF26F04EEF26F019C10FF1106B10
:104C980052EF26F0000E106F2E0E0F6F0F5125ECFD
:104CA80034F0BDEF25F0BDEF25F012000600E1CF8E
:104CB8006CF0E2CF6DF0D9CF6EF0DACF6FF0F3CFB2
:104CC80070F0F4CF71F0F6CF72F0F7CF73F0F8CF41
:104CD80074F0F5CF75F09EAC74EF26F076EF26F001
:104CE80089EF26F0F1EC2EF041C095F142C096F123
:104CF80043C097F144C098F1B3EC27F05BC0A1F131
:104D08005CC0A2F195EC2FF09E9CF2A48EEF26F0E9
:104D180090EF26F0FDEF26F00001E151E211D8A452
:104D280098EF26F09AEF26F0F8EF26F0010E010131
:104D38009F259F6F000EA021A06F22EC35F05BC06D
:104D480068F05CC069F0000E000169BFFF0E6A6F71
:104D58006B6F6851D9276951DA236A51DB236B518C
:104D6800DC23D9C001F0DAC002F0DBC003F0DCC0FC
:104D780004F0010E2BEC23F001C00FF002C010F07C
:104D880003C011F004C012F0000E136EBA0E146EB8
:104D98005B0E156E4A0E166E1EEC19F00FC0D5F09C
:104DA80010C0D6F011C0D7F012C0D8F0D5C028F086
:104DB800D6C029F0D7C02AF0D8C02BF0E6C02CF016
:104DC800E7C02DF0E8C02EF0E9C02FF042EC15F056
:104DD80028C091F129C092F12AC093F12BC094F117
:104DE8002DEC30F02CEC33F0B30ED76EB50ED66E3A
:104DF800F29475C0F5FF74C0F8FF73C0F7FF72C076
:104E0800F6FF71C0F4FF70C0F3FF6FC0DAFF6EC029
:104E1800D9FF6DC0E2FF6CC0E1FF5F921100C28252
:104E2800C2B219EF27F01BEF27F014EF27F0000E9E
:104E38000001A16F000EA26FA00EA36F400EA46F19
:104E4800000E886FC00E896F7F0E8A6F440E8B6FBD
:104E5800C350C4CFD2F0D36BD2C0D3F0D26BD22719
:104E6800000ED323D2C076F0D3C077F0000E77BF00
:104E7800FF0E786F796F010E4FEC22F076C084F048
:104E880077C085F078C086F079C087F055EC17F0C8
:104E980084C09DF085C09EF086C09FF087C0A0F0BA
:104EA8002EEC13F09DC0B6F09EC0B7F09FC0B8F0CE
:104EB800A0C0B9F0000E0001BA6F000EBB6FF60E6D
:104EC800BC6F420EBD6F77EC0EF0B6C000F1B7C0F4
:104ED80001F1B8C002F1B9C003F1000E0001B66FCC
:104EE800000EB76FF60EB86F420EB96F00C1BAF078
:104EF80001C1BBF002C1BCF003C1BDF06DEC29F0EB
:104F08000001D8B08AEF27F08CEF27F0AEEF27F03A
:104F1800000EBA6F000EBB6F000EBC6F3F0EBD6F68
:104F280000C1B6F001C1B7F002C1B8F003C1B9F0D1
:104F380077EC0EF0B6C0C6F0B7C0C7F0B8C0C8F07E
:104F4800B9C0C9F0E9EC28F0C6C0D0F0C7C0D1F0AC
:104F5800B2EF27F0000ED16F000ED06F1200C282A0
:104F6800C2B2B9EF27F0BBEF27F0B4EF27F0000E7D
:104F78002C6E000E2D6EA00E2E6E400E2F6E000EA3
:104F8800136EC00E146E7F0E156E440E166EC3504F
:104F9800C4CF5DF05E6A5DC05EF05D6A5D26000E9E
:104FA8005E225DC001F05EC002F0000E02BEFF0E80
:104FB800036E046E010E2BEC23F001C00FF002C04B
:104FC80010F003C011F004C012F01EEC19F00FC06D
:104FD80028F010C029F011C02AF012C02BF042ECC2
:104FE80015F028C041F029C042F02AC043F02BC078
:104FF80044F0000E456E000E466EF60E476E420EE9
:10500800486ED3EC10F041C060F042C061F043C07C
:1050180062F044C063F0000E016E000E026EF60EE0
:10502800036E420E046E60C005F061C006F062C0F7
:1050380007F063C008F073EC2AF0D8B026EF28F028
:1050480028EF28F04AEF28F0000E456E000E466E55
:10505800000E476E3F0E486E60C041F061C042F0DE
:1050680062C043F063C044F0D3EC10F041C051F08B
:1050780042C052F043C053F044C054F0F0EC29F061
:1050880051C05BF052C05CF04EEF28F0000E5C6E31
:10509800000E5B6E120077EC36F0800E47EC34F0B1
:1050A800EC0E0001776F7E0E786F69EC30F0C00E61
:1050B80047EC34F0CC0E0001776F7E0E786F69EC08
:1050C80030F0330E0101756FBB0E746FDF0EE82EE2
:1050D800FED7742FFCD7752FFAD700D0030E010125
:1050E800756F8A0E746F550EE82EFED7742FFCD795
:1050F800752FFAD700D077EC36F0800E47EC34F0F5
:105108007F0E0001776F7F0E786F69EC30F0C00E6C
:1051180047EC34F0DF0E0001776F7F0E786F69EC93
:1051280030F070EC21F00001D46FD451D8B49FEF67
:1051380028F0A1EF28F072EF28F0420ED419D8A475
:10514800A8EF28F0AAEF28F0CFEF28F077EC36F098
:10515800820E47EC34F0500E0001776F7F0E786FA7
:1051680069EC30F0C20E47EC34F0D00E0001776FD6
:105178007E0E786F69EC30F0330E0101756FBB0E4F
:10518800746FDF0EE82EFED7742FFCD7752FFAD771
:1051980000D0E8EF28F0310ED419D8A4D6EF28F0C3
:1051A800D8EF28F0DAEF28F08CEC20F0320E00016E
:1051B800D419D8A4E2EF28F0E4EF28F072EF28F031
:1051C80090EC1DF072EF28F012000001C835C935C7
:1051D800CF6FCF51D8A4F3EF28F0F5EF28F0FFEF09
:1051E80028F0000EC66F000EC76F000EC86F000EC5
:1051F800C96F6CEF29F0C6C0CAF0C7C0CBF0C8C0F1
:10520800CCF0C9C0CDF0200E0FEF29F0D890CD33E7
:10521800CC33CB33CA33E82E0AEF29F0CA51CE6F0C
:10522800C88FFF0EC617FF0EC717FF0EC817000E50
:10523800C917960ECF5FCFBF26EF29F024EF29F0CC
:105248003CEF29F0CF51800A970FD8B02EEF29F004
:1052580030EF29F032EF29F0F5EF28F0D890C93374
:10526800C833C733C633CF3F32EF29F054EF29F0A4
:105278001F0ECF6542EF29F044EF29F04CEF29F0DB
:10528800F5EF28F0D890C637C737C837C937CF07E2
:10529800CF51D8A452EF29F054EF29F046EF29F066
:1052A800CE51D8B45AEF29F05CEF29F064EF29F019
:1052B800C91FC81FC71FC66D000EC723C823C9232F
:1052C800C6C0C6F0C7C0C7F0C8C0C8F0C9C0C9F0DA
:1052D8001200000E0001B615BE6F000EB715BF6FA5
:1052E800800EB815C06F7F0EB915C16FBE51BF11C2
:1052F800C011C111D8A483EF29F085EF29F08DEFF3
:1053080029F0000EB66F000EB76F000EB86F000ED2
:10531800B96F000EBA15BE6F000EBB15BF6F800EB9
:10532800BC15C06F7F0EBD15C16FBE51BF11C01136
:10533800C111D8A4A2EF29F0A4EF29F0ACEF29F00D
:10534800000EBA6F000EBB6F000EBC6F000EBD6F73
:10535800B9AFB1EF29F0B3EF29F0BCEF29F0B66D82
:10536800B71FD8B0B72BB81FD8B0B82B800EB95715
:10537800BDAFC1EF29F0C3EF29F0CCEF29F0BA6D2A
:10538800BB1FD8B0BB2BBC1FD8B0BC2B800EBD57E1
:10539800000EB61B000EB71B000EB81B800EB91B03
:1053A800000EBA1B000EBB1B000EBC1B800EBD1BE3
:1053B800BA51B65DBB51B759BC51B859BD51B9596D
:1053C800D8B0E9EF29F0EBEF29F0EEEF29F0D8900B
:1053D800EFEF29F0D8801200533454345A6E5A50E3
:1053E800D8A4F9EF29F0FBEF29F005EF2AF0000E19
:1053F800516E000E526E000E536E000E546E72EF18
:105408002AF051C055F052C056F053C057F054C05E
:1054180058F0200E15EF2AF0D890583257325632ED
:105428005532E82E10EF2AF05550596E538EFF0E64
:105438005116FF0E5216FF0E5316000E5416960EF6
:105448005A5E5ABE2CEF2AF02AEF2AF042EF2AF0D1
:105458005A50800A970FD8B034EF2AF036EF2AF066
:1054680038EF2AF0FBEF29F0D890543253325232F9
:1054780051325A3E38EF2AF05AEF2AF01F0E5A647A
:1054880048EF2AF04AEF2AF052EF2AF0FBEF29F012
:10549800D89051365236533654365A065A50D8A4F4
:1054A80058EF2AF05AEF2AF04CEF2AF05950D8B4A6
:1054B80060EF2AF062EF2AF06AEF2AF0541E531EBA
:1054C800521E516C000E52225322542251C051F0E8
:1054D80052C052F053C053F054C054F01200000EA2
:1054E8000114096E000E02140A6E800E03140B6E6E
:1054F8007F0E04140C6E09500A100B100C10D8A45F
:1055080088EF2AF08AEF2AF092EF2AF0000E016E57
:10551800000E026E000E036E000E046E000E0514DF
:10552800096E000E06140A6E800E07140B6E7F0EAD
:1055380008140C6E09500A100B100C10D8A4A7EF11
:105548002AF0A9EF2AF0B1EF2AF0000E056E000E3E
:10555800066E000E076E000E086E04AEB6EF2AF057
:10556800B8EF2AF0C1EF2AF0016C021ED8B0022A67
:10557800031ED8B0032A800E045608AEC6EF2AF0E0
:10558800C8EF2AF0D1EF2AF0056C061ED8B0062A1B
:10559800071ED8B0072A800E0856000E011A000E02
:1055A800021A000E031A800E041A000E051A000EC5
:1055B800061A000E071A800E081A0550015C0650DC
:1055C80002580750035808500458D8B0EEEF2AF094
:1055D800F0EF2AF0F3EF2AF0D890F4EF2AF0D88011
:1055E800120085C180F086C181F087C182F088C130
:1055F80083F076C080F077C081F078C082F079C0FF
:1056080083F080C07AF081C07BF082C07CF083C0D8
:105618007DF0180E16EF2BF00001D8907D337C3307
:105628007B337A33E82E10EF2BF07A517E6F7F6B45
:105638007E517F11D8A423EF2BF025EF2BF045EFF7
:105648002BF0D89080357A6F81357B6F82357C6FEF
:1056580083357D6F7A517B117C117D11D8A437EF8A
:105668002BF039EF2BF03FEF2BF0000E776F020E87
:10567800766F74EF2BF0000E776F030E766F74EF72
:105688002BF07E297F11D8A44CEF2BF04EEF2BF096
:1056980070EF2BF080C07AF081C07BF082C07CF084
:1056A80083C07DF0090ED8907A377B377C377D37F9
:1056B800E82E57EF2BF07A517B117C117D11D8B46D
:1056C80068EF2BF06BEF2BF0010E6CEF2BF0000E58
:1056D800766F776B74EF2BF0000E776F040E766F92
:1056E800120090EC36F0800EC9EC34F01E0E026EFB
:1056F8007F0E036EDCEC30F0C00EC9EC34F0080EFF
:105708001C6E9D0E1B6E060EE82EFED71B2EFCD7B8
:105718001C2EFAD71D0E156E44EC2FF01D0E056ECB
:10572800C5EC35F005500610D8B49DEF2BF09FEF6F
:105738002BF0BEEF2BF0000E0001E26F000EE16FC0
:10574800828CC28090EC36F0800EC9EC34F00B0EDF
:10575800026E7F0E036EDCEC30F0330E1C6EBB0E57
:105768001B6EE00EE82EFED71B2EFCD71C2EFAD798
:10577800EFEF2BF090EC36F0800EC9EC34F0430ECE
:10578800026E7E0E036EDCEC30F0330E1C6EBB0E28
:105798001B6EE00EE82EFED71B2EFCD71C2EFAD768
:1057A80090EC36F0800EC9EC34F01E0E026E7F0EBF
:1057B800036EDCEC30F0080E1C6E9D0E1B6E060EA0
:1057C800E82EFED71B2EFCD71C2EFAD7C00EC9EC2C
:1057D80034F083EF2BF012000001776F0F0E831661
:1057E8000F0E95169694969096928D948D908D9214
:1057F800A6EC36F0300E47EC34F09CEC36F09CEC1E
:1058080036F0300E47EC34F09CEC36F09CEC36F079
:10581800320E47EC34F0BCEC33F00009D8A417EF93
:105828002CF019EF2CF00FEF2CF0BCEC33F0000942
:10583800D8A421EF2CF023EF2CF019EF2CF0000165
:10584800775147EC34F0BCEC33F00009D8A42FEFC3
:105858002CF031EF2CF027EF2CF0080E47EC34F049
:10586800BCEC33F00009D8A43CEF2CF03EEF2CF050
:1058780034EF2CF00F0E47EC34F0BCEC33F0000999
:10588800D8A449EF2CF04BEF2CF041EF2CF0010E8F
:1058980047EC34F0BCEC33F00009D8A456EF2CF0F8
:1058A80058EF2CF04EEF2CF0040E47EC34F0BCEC23
:1058B80033F00009D8A463EF2CF065EF2CF05BEF10
:1058C8002CF0800E99EC33F0120000017851791118
:1058D800D8B471EF2CF073EF2CF07CEF2CF07851EA
:1058E8007911D8A47AEF2CF07CEF2CF081EF2CF012
:1058F8007651D2EC36F0CEEF2CF020EE09F078514C
:10590800D9267951DA22DE50DE10D8B48EEF2CF089
:1059180090EF2CF0ABEF2CF020EE09F07851D9265F
:105928007951DA2210EE02F07851E1267951E2221B
:10593800DE50E65CE650800A7E6FDE50800A7E59B3
:10594800D8B0A9EF2CF0ABEF2CF0CEEF2CF020EE76
:1059580002F07851D9267951DA22DECF7AF0DDCFFC
:105968007BF078C0D9FF79C0DAFFDECF7CF0DDCFDD
:105978007DF07A517C25D96E7B517D21DA6E76C017
:10598800DFFF20EE02F07851D9267951DA22DE2A9B
:10599800000EDD221200000E00017E6F000E7D6FEA
:1059A80076C0D9FF77C0DAFFDECFF6FFDDCFF7FF8D
:1059B8000800F5502A0AD8A4E4EF2CF0E6EF2CF002
:1059C80019EF2DF076C0D9FF77C0DAFFDE2A000E76
:1059D800DD2278C0D9FF79C0DAFFDFCF7AF0020E76
:1059E800DE26DFCF7BF0000EDD227AC0D9FF7BC038
:1059F800DAFFDECF7DF0DDCF7EF02DEF2DF00A0E41
:105A08007D03F3CF7AF0F4CF7BF07E03F3507B274E
:105A18007C517A257D6F000E7B217E6F76C0D9FF81
:105A280077C0DAFFDE2A000EDD2276C0D9FF77C004
:105A3800DAFFDECFF6FFDDCFF7FF0800F550D00F15
:105A48007C6F090E7C652BEF2DF02DEF2DF003EF09
:105A58002DF07DC076F07EC077F0120000017B6BE0
:105A680079BF3BEF2DF039EF2DF041EF2DF0786D38
:105A7800791FD8B0792B010E7B6F77BF48EF2DF0D7
:105A880046EF2DF04EEF2DF0766D771FD8B0772BBF
:105A9800010E7B1B000E7D6F000E7C6F7851791113
:105AA800D8B459EF2DF05BEF2DF083EF2DF0010EF8
:105AB8007A6F63EF2DF0D890783779377A2B79AFF2
:105AC80068EF2DF06AEF2DF05FEF2DF0D8907C375E
:105AD8007D377851765D79517759D8A076EF2DF0DA
